{
  "_format": "hh-sol-artifact-1",
  "contractName": "YourContract",
  "sourceName": "contracts/YourContract.sol",
  "abi": [
    {
      "inputs": [],
      "stateMutability": "nonpayable",
      "type": "constructor"
    },
    {
      "inputs": [
        {
          "internalType": "address",
          "name": "_address",
          "type": "address"
        }
      ],
      "name": "addToWhitelist",
      "outputs": [],
      "stateMutability": "nonpayable",
      "type": "function"
    },
    {
      "inputs": [
        {
          "internalType": "address",
          "name": "newUser",
          "type": "address"
        },
        {
          "internalType": "string",
          "name": "initialHealthRecord",
          "type": "string"
        },
        {
          "internalType": "address",
          "name": "initialDistrictAddress",
          "type": "address"
        },
        {
          "internalType": "uint8",
          "name": "initialAuthorizationLevel",
          "type": "uint8"
        }
      ],
      "name": "addUser",
      "outputs": [],
      "stateMutability": "nonpayable",
      "type": "function"
    },
    {
      "inputs": [
        {
          "internalType": "address",
          "name": "",
          "type": "address"
        },
        {
          "internalType": "uint256",
          "name": "",
          "type": "uint256"
        }
      ],
      "name": "allowedDistricts",
      "outputs": [
        {
          "internalType": "address",
          "name": "districtAddress",
          "type": "address"
        },
        {
          "internalType": "uint8",
          "name": "authorizationLevel",
          "type": "uint8"
        }
      ],
      "stateMutability": "view",
      "type": "function"
    },
    {
      "inputs": [
        {
          "internalType": "address",
          "name": "userAddress",
          "type": "address"
        },
        {
          "internalType": "uint256",
          "name": "districtId",
          "type": "uint256"
        }
      ],
      "name": "canModify",
      "outputs": [
        {
          "internalType": "bool",
          "name": "",
          "type": "bool"
        }
      ],
      "stateMutability": "view",
      "type": "function"
    },
    {
      "inputs": [
        {
          "internalType": "address",
          "name": "userAddress",
          "type": "address"
        },
        {
          "internalType": "uint256",
          "name": "districtId",
          "type": "uint256"
        }
      ],
      "name": "getAuthorizationLevelByUserAddress",
      "outputs": [
        {
          "internalType": "uint8",
          "name": "",
          "type": "uint8"
        }
      ],
      "stateMutability": "view",
      "type": "function"
    },
    {
      "inputs": [
        {
          "internalType": "address",
          "name": "userAddress",
          "type": "address"
        },
        {
          "internalType": "uint256",
          "name": "districtId",
          "type": "uint256"
        }
      ],
      "name": "getDistrictAdressByUserAddress",
      "outputs": [
        {
          "internalType": "address",
          "name": "",
          "type": "address"
        }
      ],
      "stateMutability": "view",
      "type": "function"
    },
    {
      "inputs": [
        {
          "internalType": "address",
          "name": "userAddress",
          "type": "address"
        },
        {
          "internalType": "uint256",
          "name": "districtId",
          "type": "uint256"
        },
        {
          "internalType": "string",
          "name": "newRecord",
          "type": "string"
        }
      ],
      "name": "modifyUserHealthRecord",
      "outputs": [],
      "stateMutability": "nonpayable",
      "type": "function"
    },
    {
      "inputs": [
        {
          "internalType": "address",
          "name": "_address",
          "type": "address"
        }
      ],
      "name": "removeFromWhitelist",
      "outputs": [],
      "stateMutability": "nonpayable",
      "type": "function"
    },
    {
      "inputs": [
        {
          "internalType": "address",
          "name": "",
          "type": "address"
        }
      ],
      "name": "userHealthRecords",
      "outputs": [
        {
          "internalType": "string",
          "name": "",
          "type": "string"
        }
      ],
      "stateMutability": "view",
      "type": "function"
    },
    {
      "inputs": [
        {
          "internalType": "address",
          "name": "",
          "type": "address"
        }
      ],
      "name": "whitelist",
      "outputs": [
        {
          "internalType": "bool",
          "name": "",
          "type": "bool"
        }
      ],
      "stateMutability": "view",
      "type": "function"
    }
  ],
  "bytecode": "0x60806040523480156200001157600080fd5b506001600260003373ffffffffffffffffffffffffffffffffffffffff1673ffffffffffffffffffffffffffffffffffffffff16815260200190815260200160002060006101000a81548160ff021916908315150217905550620000dc7370997970c51812dc3a010c7d01b50e0d17dc79c86040518060400160405280601381526020017f68656c6c6f206865616c7468207265636f72640000000000000000000000000081525073b91bc2a105c03667930b5ebe639e7914c5763bdb6064620000e260201b60201c565b62000683565b600260003373ffffffffffffffffffffffffffffffffffffffff1673ffffffffffffffffffffffffffffffffffffffff16815260200190815260200160002060009054906101000a900460ff1662000171576040517f08c379a00000000000000000000000000000000000000000000000000000000081526004016200016890620004f3565b60405180910390fd5b60008060008673ffffffffffffffffffffffffffffffffffffffff1673ffffffffffffffffffffffffffffffffffffffff1681526020019081526020016000208054905014620001f8576040517f08c379a0000000000000000000000000000000000000000000000000000000008152600401620001ef9062000565565b60405180910390fd5b6000600160008673ffffffffffffffffffffffffffffffffffffffff1673ffffffffffffffffffffffffffffffffffffffff16815260200190815260200160002080546200024690620005b6565b9050146200028b576040517f08c379a0000000000000000000000000000000000000000000000000000000008152600401620002829062000661565b60405180910390fd5b6000808573ffffffffffffffffffffffffffffffffffffffff1673ffffffffffffffffffffffffffffffffffffffff16815260200190815260200160002060405180604001604052808473ffffffffffffffffffffffffffffffffffffffff1681526020018360ff168152509080600181540180825580915050600190039060005260206000200160009091909190915060008201518160000160006101000a81548173ffffffffffffffffffffffffffffffffffffffff021916908373ffffffffffffffffffffffffffffffffffffffff16021790555060208201518160000160146101000a81548160ff021916908360ff160217905550505082600160008673ffffffffffffffffffffffffffffffffffffffff1673ffffffffffffffffffffffffffffffffffffffff1681526020019081526020016000209080519060200190620003db929190620003e2565b5050505050565b828054620003f090620005b6565b90600052602060002090601f01602090048101928262000414576000855562000460565b82601f106200042f57805160ff191683800117855562000460565b8280016001018555821562000460579182015b828111156200045f57825182559160200191906001019062000442565b5b5090506200046f919062000473565b5090565b5b808211156200048e57600081600090555060010162000474565b5090565b600082825260208201905092915050565b7f4e6f742077686974656c69737465640000000000000000000000000000000000600082015250565b6000620004db600f8362000492565b9150620004e882620004a3565b602082019050919050565b600060208201905081810360008301526200050e81620004cc565b9050919050565b7f5573657220616c726561647920616464656420746f206469737472696374732e600082015250565b60006200054d60208362000492565b91506200055a8262000515565b602082019050919050565b6000602082019050818103600083015262000580816200053e565b9050919050565b7f4e487b7100000000000000000000000000000000000000000000000000000000600052602260045260246000fd5b60006002820490506001821680620005cf57607f821691505b602082108103620005e557620005e462000587565b5b50919050565b7f5573657220616c7265616479206861732061206865616c7468207265636f726460008201527f2e00000000000000000000000000000000000000000000000000000000000000602082015250565b60006200064960218362000492565b91506200065682620005eb565b604082019050919050565b600060208201905081810360008301526200067c816200063a565b9050919050565b61149680620006936000396000f3fe608060405234801561001057600080fd5b506004361061009e5760003560e01c8063c7a87bae11610066578063c7a87bae1461016c578063e2b95b2e14610188578063e43252d7146101b8578063e744f40c146101d4578063ed4cc6f5146102045761009e565b80630e267317146100a357806380cdb604146100bf5780638ab1d681146100ef5780639b19251a1461010b578063ad2b28d21461013b575b600080fd5b6100bd60048036038101906100b89190610ee3565b610234565b005b6100d960048036038101906100d49190610f9c565b610527565b6040516100e69190610feb565b60405180910390f35b61010960048036038101906101049190611006565b610657565b005b61012560048036038101906101209190611006565b61073e565b604051610132919061104e565b60405180910390f35b61015560048036038101906101509190610f9c565b61075e565b604051610163929190611078565b60405180910390f35b610186600480360381019061018191906110a1565b6107c8565b005b6101a2600480360381019061019d9190611006565b610821565b6040516101af9190611198565b60405180910390f35b6101d260048036038101906101cd9190611006565b6108c1565b005b6101ee60048036038101906101e99190610f9c565b6109a8565b6040516101fb91906111ba565b60405180910390f35b61021e60048036038101906102199190610f9c565b610ad8565b60405161022b919061104e565b60405180910390f35b600260003373ffffffffffffffffffffffffffffffffffffffff1673ffffffffffffffffffffffffffffffffffffffff16815260200190815260200160002060009054906101000a900460ff166102c0576040517f08c379a00000000000000000000000000000000000000000000000000000000081526004016102b790611221565b60405180910390fd5b60008060008673ffffffffffffffffffffffffffffffffffffffff1673ffffffffffffffffffffffffffffffffffffffff1681526020019081526020016000208054905014610344576040517f08c379a000000000000000000000000000000000000000000000000000000000815260040161033b9061128d565b60405180910390fd5b6000600160008673ffffffffffffffffffffffffffffffffffffffff1673ffffffffffffffffffffffffffffffffffffffff1681526020019081526020016000208054610390906112dc565b9050146103d2576040517f08c379a00000000000000000000000000000000000000000000000000000000081526004016103c99061137f565b60405180910390fd5b6000808573ffffffffffffffffffffffffffffffffffffffff1673ffffffffffffffffffffffffffffffffffffffff16815260200190815260200160002060405180604001604052808473ffffffffffffffffffffffffffffffffffffffff1681526020018360ff168152509080600181540180825580915050600190039060005260206000200160009091909190915060008201518160000160006101000a81548173ffffffffffffffffffffffffffffffffffffffff021916908373ffffffffffffffffffffffffffffffffffffffff16021790555060208201518160000160146101000a81548160ff021916908360ff160217905550505082600160008673ffffffffffffffffffffffffffffffffffffffff1673ffffffffffffffffffffffffffffffffffffffff1681526020019081526020016000209080519060200190610520929190610c4f565b5050505050565b6000806000808573ffffffffffffffffffffffffffffffffffffffff1673ffffffffffffffffffffffffffffffffffffffff168152602001908152602001600020805480602002602001604051908101604052809291908181526020016000905b82821015610629578382906000526020600020016040518060400160405290816000820160009054906101000a900473ffffffffffffffffffffffffffffffffffffffff1673ffffffffffffffffffffffffffffffffffffffff1673ffffffffffffffffffffffffffffffffffffffff1681526020016000820160149054906101000a900460ff1660ff1660ff168152505081526020019060010190610588565b5050505090508083815181106106425761064161139f565b5b60200260200101516020015191505092915050565b600260003373ffffffffffffffffffffffffffffffffffffffff1673ffffffffffffffffffffffffffffffffffffffff16815260200190815260200160002060009054906101000a900460ff166106e3576040517f08c379a00000000000000000000000000000000000000000000000000000000081526004016106da90611221565b60405180910390fd5b6000600260008373ffffffffffffffffffffffffffffffffffffffff1673ffffffffffffffffffffffffffffffffffffffff16815260200190815260200160002060006101000a81548160ff02191690831515021790555050565b60026020528060005260406000206000915054906101000a900460ff1681565b6000602052816000526040600020818154811061077a57600080fd5b90600052602060002001600091509150508060000160009054906101000a900473ffffffffffffffffffffffffffffffffffffffff16908060000160149054906101000a900460ff16905082565b80600160008573ffffffffffffffffffffffffffffffffffffffff1673ffffffffffffffffffffffffffffffffffffffff168152602001908152602001600020908051906020019061081b929190610c4f565b50505050565b60016020528060005260406000206000915090508054610840906112dc565b80601f016020809104026020016040519081016040528092919081815260200182805461086c906112dc565b80156108b95780601f1061088e576101008083540402835291602001916108b9565b820191906000526020600020905b81548152906001019060200180831161089c57829003601f168201915b505050505081565b600260003373ffffffffffffffffffffffffffffffffffffffff1673ffffffffffffffffffffffffffffffffffffffff16815260200190815260200160002060009054906101000a900460ff1661094d576040517f08c379a000000000000000000000000000000000000000000000000000000000815260040161094490611221565b60405180910390fd5b6001600260008373ffffffffffffffffffffffffffffffffffffffff1673ffffffffffffffffffffffffffffffffffffffff16815260200190815260200160002060006101000a81548160ff02191690831515021790555050565b6000806000808573ffffffffffffffffffffffffffffffffffffffff1673ffffffffffffffffffffffffffffffffffffffff168152602001908152602001600020805480602002602001604051908101604052809291908181526020016000905b82821015610aaa578382906000526020600020016040518060400160405290816000820160009054906101000a900473ffffffffffffffffffffffffffffffffffffffff1673ffffffffffffffffffffffffffffffffffffffff1673ffffffffffffffffffffffffffffffffffffffff1681526020016000820160149054906101000a900460ff1660ff1660ff168152505081526020019060010190610a09565b505050509050808381518110610ac357610ac261139f565b5b60200260200101516000015191505092915050565b6000806000808573ffffffffffffffffffffffffffffffffffffffff1673ffffffffffffffffffffffffffffffffffffffff168152602001908152602001600020805480602002602001604051908101604052809291908181526020016000905b82821015610bda578382906000526020600020016040518060400160405290816000820160009054906101000a900473ffffffffffffffffffffffffffffffffffffffff1673ffffffffffffffffffffffffffffffffffffffff1673ffffffffffffffffffffffffffffffffffffffff1681526020016000820160149054906101000a900460ff1660ff1660ff168152505081526020019060010190610b39565b5050505090506064818481518110610bf557610bf461139f565b5b60200260200101516020015160ff1614610c44576040517f08c379a0000000000000000000000000000000000000000000000000000000008152600401610c3b90611440565b60405180910390fd5b600191505092915050565b828054610c5b906112dc565b90600052602060002090601f016020900481019282610c7d5760008555610cc4565b82601f10610c9657805160ff1916838001178555610cc4565b82800160010185558215610cc4579182015b82811115610cc3578251825591602001919060010190610ca8565b5b509050610cd19190610cd5565b5090565b5b80821115610cee576000816000905550600101610cd6565b5090565b6000604051905090565b600080fd5b600080fd5b600073ffffffffffffffffffffffffffffffffffffffff82169050919050565b6000610d3182610d06565b9050919050565b610d4181610d26565b8114610d4c57600080fd5b50565b600081359050610d5e81610d38565b92915050565b600080fd5b600080fd5b6000601f19601f8301169050919050565b7f4e487b7100000000000000000000000000000000000000000000000000000000600052604160045260246000fd5b610db782610d6e565b810181811067ffffffffffffffff82111715610dd657610dd5610d7f565b5b80604052505050565b6000610de9610cf2565b9050610df58282610dae565b919050565b600067ffffffffffffffff821115610e1557610e14610d7f565b5b610e1e82610d6e565b9050602081019050919050565b82818337600083830152505050565b6000610e4d610e4884610dfa565b610ddf565b905082815260208101848484011115610e6957610e68610d69565b5b610e74848285610e2b565b509392505050565b600082601f830112610e9157610e90610d64565b5b8135610ea1848260208601610e3a565b91505092915050565b600060ff82169050919050565b610ec081610eaa565b8114610ecb57600080fd5b50565b600081359050610edd81610eb7565b92915050565b60008060008060808587031215610efd57610efc610cfc565b5b6000610f0b87828801610d4f565b945050602085013567ffffffffffffffff811115610f2c57610f2b610d01565b5b610f3887828801610e7c565b9350506040610f4987828801610d4f565b9250506060610f5a87828801610ece565b91505092959194509250565b6000819050919050565b610f7981610f66565b8114610f8457600080fd5b50565b600081359050610f9681610f70565b92915050565b60008060408385031215610fb357610fb2610cfc565b5b6000610fc185828601610d4f565b9250506020610fd285828601610f87565b9150509250929050565b610fe581610eaa565b82525050565b60006020820190506110006000830184610fdc565b92915050565b60006020828403121561101c5761101b610cfc565b5b600061102a84828501610d4f565b91505092915050565b60008115159050919050565b61104881611033565b82525050565b6000602082019050611063600083018461103f565b92915050565b61107281610d26565b82525050565b600060408201905061108d6000830185611069565b61109a6020830184610fdc565b9392505050565b6000806000606084860312156110ba576110b9610cfc565b5b60006110c886828701610d4f565b93505060206110d986828701610f87565b925050604084013567ffffffffffffffff8111156110fa576110f9610d01565b5b61110686828701610e7c565b9150509250925092565b600081519050919050565b600082825260208201905092915050565b60005b8381101561114a57808201518184015260208101905061112f565b83811115611159576000848401525b50505050565b600061116a82611110565b611174818561111b565b935061118481856020860161112c565b61118d81610d6e565b840191505092915050565b600060208201905081810360008301526111b2818461115f565b905092915050565b60006020820190506111cf6000830184611069565b92915050565b7f4e6f742077686974656c69737465640000000000000000000000000000000000600082015250565b600061120b600f8361111b565b9150611216826111d5565b602082019050919050565b6000602082019050818103600083015261123a816111fe565b9050919050565b7f5573657220616c726561647920616464656420746f206469737472696374732e600082015250565b600061127760208361111b565b915061128282611241565b602082019050919050565b600060208201905081810360008301526112a68161126a565b9050919050565b7f4e487b7100000000000000000000000000000000000000000000000000000000600052602260045260246000fd5b600060028204905060018216806112f457607f821691505b602082108103611307576113066112ad565b5b50919050565b7f5573657220616c7265616479206861732061206865616c7468207265636f726460008201527f2e00000000000000000000000000000000000000000000000000000000000000602082015250565b600061136960218361111b565b91506113748261130d565b604082019050919050565b600060208201905081810360008301526113988161135c565b9050919050565b7f4e487b7100000000000000000000000000000000000000000000000000000000600052603260045260246000fd5b7f5468652063616c6c657220646f6573206e6f742068617665207065726d69737360008201527f696f6e20746f206d6f646966792e000000000000000000000000000000000000602082015250565b600061142a602e8361111b565b9150611435826113ce565b604082019050919050565b600060208201905081810360008301526114598161141d565b905091905056fea264697066735822122055a5f8805bcbecae2411f6b8afec39713c516f7bd824bc03c47facc694f4088464736f6c634300080d0033",
  "linkReferences": {},
  "deployedLinkReferences": {}
}