{
	"data": {
		"bytecode": {
			"linkReferences": {},
			"object": "608060405234801562000010575f80fd5b50600160025f3373ffffffffffffffffffffffffffffffffffffffff1673ffffffffffffffffffffffffffffffffffffffff1681526020019081526020015f205f6101000a81548160ff021916908315150217905550620000d87370997970c51812dc3a010c7d01b50e0d17dc79c86040518060400160405280601381526020017f68656c6c6f206865616c7468207265636f72640000000000000000000000000081525073b91bc2a105c03667930b5ebe639e7914c5763bdb6064620000de60201b60201c565b6200088b565b60025f3373ffffffffffffffffffffffffffffffffffffffff1673ffffffffffffffffffffffffffffffffffffffff1681526020019081526020015f205f9054906101000a900460ff166200016a576040517f08c379a0000000000000000000000000000000000000000000000000000000008152600401620001619062000421565b60405180910390fd5b5f805f8673ffffffffffffffffffffffffffffffffffffffff1673ffffffffffffffffffffffffffffffffffffffff1681526020019081526020015f208054905014620001ee576040517f08c379a0000000000000000000000000000000000000000000000000000000008152600401620001e5906200048f565b60405180910390fd5b5f60015f8673ffffffffffffffffffffffffffffffffffffffff1673ffffffffffffffffffffffffffffffffffffffff1681526020019081526020015f2080546200023990620004dc565b9050146200027e576040517f08c379a0000000000000000000000000000000000000000000000000000000008152600401620002759062000584565b60405180910390fd5b5f808573ffffffffffffffffffffffffffffffffffffffff1673ffffffffffffffffffffffffffffffffffffffff1681526020019081526020015f2060405180604001604052808473ffffffffffffffffffffffffffffffffffffffff1681526020018360ff16815250908060018154018082558091505060019003905f5260205f20015f909190919091505f820151815f015f6101000a81548173ffffffffffffffffffffffffffffffffffffffff021916908373ffffffffffffffffffffffffffffffffffffffff1602179055506020820151815f0160146101000a81548160ff021916908360ff16021790555050508260015f8673ffffffffffffffffffffffffffffffffffffffff1673ffffffffffffffffffffffffffffffffffffffff1681526020019081526020015f209081620003bc9190620007a7565b5050505050565b5f82825260208201905092915050565b7f4e6f742077686974656c697374656400000000000000000000000000000000005f82015250565b5f62000409600f83620003c3565b91506200041682620003d3565b602082019050919050565b5f6020820190508181035f8301526200043a81620003fb565b9050919050565b7f5573657220616c726561647920616464656420746f206469737472696374732e5f82015250565b5f62000477602083620003c3565b9150620004848262000441565b602082019050919050565b5f6020820190508181035f830152620004a88162000469565b9050919050565b7f4e487b71000000000000000000000000000000000000000000000000000000005f52602260045260245ffd5b5f6002820490506001821680620004f457607f821691505b6020821081036200050a5762000509620004af565b5b50919050565b7f5573657220616c7265616479206861732061206865616c7468207265636f72645f8201527f2e00000000000000000000000000000000000000000000000000000000000000602082015250565b5f6200056c602183620003c3565b9150620005798262000510565b604082019050919050565b5f6020820190508181035f8301526200059d816200055e565b9050919050565b5f81519050919050565b7f4e487b71000000000000000000000000000000000000000000000000000000005f52604160045260245ffd5b5f819050815f5260205f209050919050565b5f6020601f8301049050919050565b5f82821b905092915050565b5f60088302620006397fffffffffffffffffffffffffffffffffffffffffffffffffffffffffffffffff82620005fc565b620006458683620005fc565b95508019841693508086168417925050509392505050565b5f819050919050565b5f819050919050565b5f6200068f6200068962000683846200065d565b62000666565b6200065d565b9050919050565b5f819050919050565b620006aa836200066f565b620006c2620006b98262000696565b84845462000608565b825550505050565b5f90565b620006d8620006ca565b620006e58184846200069f565b505050565b5b818110156200070c57620007005f82620006ce565b600181019050620006eb565b5050565b601f8211156200075b576200072581620005db565b6200073084620005ed565b8101602085101562000740578190505b620007586200074f85620005ed565b830182620006ea565b50505b505050565b5f82821c905092915050565b5f6200077d5f198460080262000760565b1980831691505092915050565b5f6200079783836200076c565b9150826002028217905092915050565b620007b282620005a4565b67ffffffffffffffff811115620007ce57620007cd620005ae565b5b620007da8254620004dc565b620007e782828562000710565b5f60209050601f8311600181146200081d575f841562000808578287015190505b6200081485826200078a565b86555062000883565b601f1984166200082d86620005db565b5f5b8281101562000856578489015182556001820191506020850194506020810190506200082f565b8683101562000876578489015162000872601f8916826200076c565b8355505b6001600288020188555050505b505050505050565b6115ae80620008995f395ff3fe608060405234801561000f575f80fd5b506004361061009c575f3560e01c8063c7a87bae11610064578063c7a87bae14610169578063e2b95b2e14610185578063e43252d7146101b5578063e744f40c146101d1578063ed4cc6f5146102015761009c565b80630e267317146100a057806380cdb604146100bc5780638ab1d681146100ec5780639b19251a14610108578063ad2b28d214610138575b5f80fd5b6100ba60048036038101906100b59190610dca565b610231565b005b6100d660048036038101906100d19190610e7d565b610509565b6040516100e39190610eca565b60405180910390f35b61010660048036038101906101019190610ee3565b610630565b005b610122600480360381019061011d9190610ee3565b610710565b60405161012f9190610f28565b60405180910390f35b610152600480360381019061014d9190610e7d565b61072d565b604051610160929190610f50565b60405180910390f35b610183600480360381019061017e9190610f77565b61078d565b005b61019f600480360381019061019a9190610ee3565b6107dd565b6040516101ac919061105d565b60405180910390f35b6101cf60048036038101906101ca9190610ee3565b610878565b005b6101eb60048036038101906101e69190610e7d565b610959565b6040516101f8919061107d565b60405180910390f35b61021b60048036038101906102169190610e7d565b610a7f565b6040516102289190610f28565b60405180910390f35b60025f3373ffffffffffffffffffffffffffffffffffffffff1673ffffffffffffffffffffffffffffffffffffffff1681526020019081526020015f205f9054906101000a900460ff166102ba576040517f08c379a00000000000000000000000000000000000000000000000000000000081526004016102b1906110e0565b60405180910390fd5b5f805f8673ffffffffffffffffffffffffffffffffffffffff1673ffffffffffffffffffffffffffffffffffffffff1681526020019081526020015f20805490501461033b576040517f08c379a000000000000000000000000000000000000000000000000000000000815260040161033290611148565b60405180910390fd5b5f60015f8673ffffffffffffffffffffffffffffffffffffffff1673ffffffffffffffffffffffffffffffffffffffff1681526020019081526020015f20805461038490611193565b9050146103c6576040517f08c379a00000000000000000000000000000000000000000000000000000000081526004016103bd90611233565b60405180910390fd5b5f808573ffffffffffffffffffffffffffffffffffffffff1673ffffffffffffffffffffffffffffffffffffffff1681526020019081526020015f2060405180604001604052808473ffffffffffffffffffffffffffffffffffffffff1681526020018360ff16815250908060018154018082558091505060019003905f5260205f20015f909190919091505f820151815f015f6101000a81548173ffffffffffffffffffffffffffffffffffffffff021916908373ffffffffffffffffffffffffffffffffffffffff1602179055506020820151815f0160146101000a81548160ff021916908360ff16021790555050508260015f8673ffffffffffffffffffffffffffffffffffffffff1673ffffffffffffffffffffffffffffffffffffffff1681526020019081526020015f20908161050291906113ee565b5050505050565b5f805f808573ffffffffffffffffffffffffffffffffffffffff1673ffffffffffffffffffffffffffffffffffffffff1681526020019081526020015f20805480602002602001604051908101604052809291908181526020015f905b82821015610602578382905f5260205f20016040518060400160405290815f82015f9054906101000a900473ffffffffffffffffffffffffffffffffffffffff1673ffffffffffffffffffffffffffffffffffffffff1673ffffffffffffffffffffffffffffffffffffffff1681526020015f820160149054906101000a900460ff1660ff1660ff168152505081526020019060010190610566565b50505050905080838151811061061b5761061a6114bd565b5b60200260200101516020015191505092915050565b60025f3373ffffffffffffffffffffffffffffffffffffffff1673ffffffffffffffffffffffffffffffffffffffff1681526020019081526020015f205f9054906101000a900460ff166106b9576040517f08c379a00000000000000000000000000000000000000000000000000000000081526004016106b0906110e0565b60405180910390fd5b5f60025f8373ffffffffffffffffffffffffffffffffffffffff1673ffffffffffffffffffffffffffffffffffffffff1681526020019081526020015f205f6101000a81548160ff02191690831515021790555050565b6002602052805f5260405f205f915054906101000a900460ff1681565b5f602052815f5260405f208181548110610745575f80fd5b905f5260205f20015f9150915050805f015f9054906101000a900473ffffffffffffffffffffffffffffffffffffffff1690805f0160149054906101000a900460ff16905082565b8060015f8573ffffffffffffffffffffffffffffffffffffffff1673ffffffffffffffffffffffffffffffffffffffff1681526020019081526020015f2090816107d791906113ee565b50505050565b6001602052805f5260405f205f9150905080546107f990611193565b80601f016020809104026020016040519081016040528092919081815260200182805461082590611193565b80156108705780601f1061084757610100808354040283529160200191610870565b820191905f5260205f20905b81548152906001019060200180831161085357829003601f168201915b505050505081565b60025f3373ffffffffffffffffffffffffffffffffffffffff1673ffffffffffffffffffffffffffffffffffffffff1681526020019081526020015f205f9054906101000a900460ff16610901576040517f08c379a00000000000000000000000000000000000000000000000000000000081526004016108f8906110e0565b60405180910390fd5b600160025f8373ffffffffffffffffffffffffffffffffffffffff1673ffffffffffffffffffffffffffffffffffffffff1681526020019081526020015f205f6101000a81548160ff02191690831515021790555050565b5f805f808573ffffffffffffffffffffffffffffffffffffffff1673ffffffffffffffffffffffffffffffffffffffff1681526020019081526020015f20805480602002602001604051908101604052809291908181526020015f905b82821015610a52578382905f5260205f20016040518060400160405290815f82015f9054906101000a900473ffffffffffffffffffffffffffffffffffffffff1673ffffffffffffffffffffffffffffffffffffffff1673ffffffffffffffffffffffffffffffffffffffff1681526020015f820160149054906101000a900460ff1660ff1660ff1681525050815260200190600101906109b6565b505050509050808381518110610a6b57610a6a6114bd565b5b60200260200101515f015191505092915050565b5f805f808573ffffffffffffffffffffffffffffffffffffffff1673ffffffffffffffffffffffffffffffffffffffff1681526020019081526020015f20805480602002602001604051908101604052809291908181526020015f905b82821015610b78578382905f5260205f20016040518060400160405290815f82015f9054906101000a900473ffffffffffffffffffffffffffffffffffffffff1673ffffffffffffffffffffffffffffffffffffffff1673ffffffffffffffffffffffffffffffffffffffff1681526020015f820160149054906101000a900460ff1660ff1660ff168152505081526020019060010190610adc565b5050505090506064818481518110610b9357610b926114bd565b5b60200260200101516020015160ff1614610be2576040517f08c379a0000000000000000000000000000000000000000000000000000000008152600401610bd99061155a565b60405180910390fd5b600191505092915050565b5f604051905090565b5f80fd5b5f80fd5b5f73ffffffffffffffffffffffffffffffffffffffff82169050919050565b5f610c2782610bfe565b9050919050565b610c3781610c1d565b8114610c41575f80fd5b50565b5f81359050610c5281610c2e565b92915050565b5f80fd5b5f80fd5b5f601f19601f8301169050919050565b7f4e487b71000000000000000000000000000000000000000000000000000000005f52604160045260245ffd5b610ca682610c60565b810181811067ffffffffffffffff82111715610cc557610cc4610c70565b5b80604052505050565b5f610cd7610bed565b9050610ce38282610c9d565b919050565b5f67ffffffffffffffff821115610d0257610d01610c70565b5b610d0b82610c60565b9050602081019050919050565b828183375f83830152505050565b5f610d38610d3384610ce8565b610cce565b905082815260208101848484011115610d5457610d53610c5c565b5b610d5f848285610d18565b509392505050565b5f82601f830112610d7b57610d7a610c58565b5b8135610d8b848260208601610d26565b91505092915050565b5f60ff82169050919050565b610da981610d94565b8114610db3575f80fd5b50565b5f81359050610dc481610da0565b92915050565b5f805f8060808587031215610de257610de1610bf6565b5b5f610def87828801610c44565b945050602085013567ffffffffffffffff811115610e1057610e0f610bfa565b5b610e1c87828801610d67565b9350506040610e2d87828801610c44565b9250506060610e3e87828801610db6565b91505092959194509250565b5f819050919050565b610e5c81610e4a565b8114610e66575f80fd5b50565b5f81359050610e7781610e53565b92915050565b5f8060408385031215610e9357610e92610bf6565b5b5f610ea085828601610c44565b9250506020610eb185828601610e69565b9150509250929050565b610ec481610d94565b82525050565b5f602082019050610edd5f830184610ebb565b92915050565b5f60208284031215610ef857610ef7610bf6565b5b5f610f0584828501610c44565b91505092915050565b5f8115159050919050565b610f2281610f0e565b82525050565b5f602082019050610f3b5f830184610f19565b92915050565b610f4a81610c1d565b82525050565b5f604082019050610f635f830185610f41565b610f706020830184610ebb565b9392505050565b5f805f60608486031215610f8e57610f8d610bf6565b5b5f610f9b86828701610c44565b9350506020610fac86828701610e69565b925050604084013567ffffffffffffffff811115610fcd57610fcc610bfa565b5b610fd986828701610d67565b9150509250925092565b5f81519050919050565b5f82825260208201905092915050565b5f5b8381101561101a578082015181840152602081019050610fff565b5f8484015250505050565b5f61102f82610fe3565b6110398185610fed565b9350611049818560208601610ffd565b61105281610c60565b840191505092915050565b5f6020820190508181035f8301526110758184611025565b905092915050565b5f6020820190506110905f830184610f41565b92915050565b7f4e6f742077686974656c697374656400000000000000000000000000000000005f82015250565b5f6110ca600f83610fed565b91506110d582611096565b602082019050919050565b5f6020820190508181035f8301526110f7816110be565b9050919050565b7f5573657220616c726561647920616464656420746f206469737472696374732e5f82015250565b5f611132602083610fed565b915061113d826110fe565b602082019050919050565b5f6020820190508181035f83015261115f81611126565b9050919050565b7f4e487b71000000000000000000000000000000000000000000000000000000005f52602260045260245ffd5b5f60028204905060018216806111aa57607f821691505b6020821081036111bd576111bc611166565b5b50919050565b7f5573657220616c7265616479206861732061206865616c7468207265636f72645f8201527f2e00000000000000000000000000000000000000000000000000000000000000602082015250565b5f61121d602183610fed565b9150611228826111c3565b604082019050919050565b5f6020820190508181035f83015261124a81611211565b9050919050565b5f819050815f5260205f209050919050565b5f6020601f8301049050919050565b5f82821b905092915050565b5f600883026112ad7fffffffffffffffffffffffffffffffffffffffffffffffffffffffffffffffff82611272565b6112b78683611272565b95508019841693508086168417925050509392505050565b5f819050919050565b5f6112f26112ed6112e884610e4a565b6112cf565b610e4a565b9050919050565b5f819050919050565b61130b836112d8565b61131f611317826112f9565b84845461127e565b825550505050565b5f90565b611333611327565b61133e818484611302565b505050565b5b81811015611361576113565f8261132b565b600181019050611344565b5050565b601f8211156113a65761137781611251565b61138084611263565b8101602085101561138f578190505b6113a361139b85611263565b830182611343565b50505b505050565b5f82821c905092915050565b5f6113c65f19846008026113ab565b1980831691505092915050565b5f6113de83836113b7565b9150826002028217905092915050565b6113f782610fe3565b67ffffffffffffffff8111156114105761140f610c70565b5b61141a8254611193565b611425828285611365565b5f60209050601f831160018114611456575f8415611444578287015190505b61144e85826113d3565b8655506114b5565b601f19841661146486611251565b5f5b8281101561148b57848901518255600182019150602085019450602081019050611466565b868310156114a857848901516114a4601f8916826113b7565b8355505b6001600288020188555050505b505050505050565b7f4e487b71000000000000000000000000000000000000000000000000000000005f52603260045260245ffd5b7f5468652063616c6c657220646f6573206e6f742068617665207065726d6973735f8201527f696f6e20746f206d6f646966792e000000000000000000000000000000000000602082015250565b5f611544602e83610fed565b915061154f826114ea565b604082019050919050565b5f6020820190508181035f83015261157181611538565b905091905056fea2646970667358221220c5d974459070bbc3a6b9690f223354a8c6d1406f171c11d6f1ea1ba250c6a78164736f6c63430008160033",
			"opcodes": "PUSH1 0x80 PUSH1 0x40 MSTORE CALLVALUE DUP1 ISZERO PUSH3 0x10 JUMPI PUSH0 DUP1 REVERT JUMPDEST POP PUSH1 0x1 PUSH1 0x2 PUSH0 CALLER PUSH20 0xFFFFFFFFFFFFFFFFFFFFFFFFFFFFFFFFFFFFFFFF AND PUSH20 0xFFFFFFFFFFFFFFFFFFFFFFFFFFFFFFFFFFFFFFFF AND DUP2 MSTORE PUSH1 0x20 ADD SWAP1 DUP2 MSTORE PUSH1 0x20 ADD PUSH0 KECCAK256 PUSH0 PUSH2 0x100 EXP DUP2 SLOAD DUP2 PUSH1 0xFF MUL NOT AND SWAP1 DUP4 ISZERO ISZERO MUL OR SWAP1 SSTORE POP PUSH3 0xD8 PUSH20 0x70997970C51812DC3A010C7D01B50E0D17DC79C8 PUSH1 0x40 MLOAD DUP1 PUSH1 0x40 ADD PUSH1 0x40 MSTORE DUP1 PUSH1 0x13 DUP2 MSTORE PUSH1 0x20 ADD PUSH32 0x68656C6C6F206865616C7468207265636F726400000000000000000000000000 DUP2 MSTORE POP PUSH20 0xB91BC2A105C03667930B5EBE639E7914C5763BDB PUSH1 0x64 PUSH3 0xDE PUSH1 0x20 SHL PUSH1 0x20 SHR JUMP JUMPDEST PUSH3 0x88B JUMP JUMPDEST PUSH1 0x2 PUSH0 CALLER PUSH20 0xFFFFFFFFFFFFFFFFFFFFFFFFFFFFFFFFFFFFFFFF AND PUSH20 0xFFFFFFFFFFFFFFFFFFFFFFFFFFFFFFFFFFFFFFFF AND DUP2 MSTORE PUSH1 0x20 ADD SWAP1 DUP2 MSTORE PUSH1 0x20 ADD PUSH0 KECCAK256 PUSH0 SWAP1 SLOAD SWAP1 PUSH2 0x100 EXP SWAP1 DIV PUSH1 0xFF AND PUSH3 0x16A JUMPI PUSH1 0x40 MLOAD PUSH32 0x8C379A000000000000000000000000000000000000000000000000000000000 DUP2 MSTORE PUSH1 0x4 ADD PUSH3 0x161 SWAP1 PUSH3 0x421 JUMP JUMPDEST PUSH1 0x40 MLOAD DUP1 SWAP2 SUB SWAP1 REVERT JUMPDEST PUSH0 DUP1 PUSH0 DUP7 PUSH20 0xFFFFFFFFFFFFFFFFFFFFFFFFFFFFFFFFFFFFFFFF AND PUSH20 0xFFFFFFFFFFFFFFFFFFFFFFFFFFFFFFFFFFFFFFFF AND DUP2 MSTORE PUSH1 0x20 ADD SWAP1 DUP2 MSTORE PUSH1 0x20 ADD PUSH0 KECCAK256 DUP1 SLOAD SWAP1 POP EQ PUSH3 0x1EE JUMPI PUSH1 0x40 MLOAD PUSH32 0x8C379A000000000000000000000000000000000000000000000000000000000 DUP2 MSTORE PUSH1 0x4 ADD PUSH3 0x1E5 SWAP1 PUSH3 0x48F JUMP JUMPDEST PUSH1 0x40 MLOAD DUP1 SWAP2 SUB SWAP1 REVERT JUMPDEST PUSH0 PUSH1 0x1 PUSH0 DUP7 PUSH20 0xFFFFFFFFFFFFFFFFFFFFFFFFFFFFFFFFFFFFFFFF AND PUSH20 0xFFFFFFFFFFFFFFFFFFFFFFFFFFFFFFFFFFFFFFFF AND DUP2 MSTORE PUSH1 0x20 ADD SWAP1 DUP2 MSTORE PUSH1 0x20 ADD PUSH0 KECCAK256 DUP1 SLOAD PUSH3 0x239 SWAP1 PUSH3 0x4DC JUMP JUMPDEST SWAP1 POP EQ PUSH3 0x27E JUMPI PUSH1 0x40 MLOAD PUSH32 0x8C379A000000000000000000000000000000000000000000000000000000000 DUP2 MSTORE PUSH1 0x4 ADD PUSH3 0x275 SWAP1 PUSH3 0x584 JUMP JUMPDEST PUSH1 0x40 MLOAD DUP1 SWAP2 SUB SWAP1 REVERT JUMPDEST PUSH0 DUP1 DUP6 PUSH20 0xFFFFFFFFFFFFFFFFFFFFFFFFFFFFFFFFFFFFFFFF AND PUSH20 0xFFFFFFFFFFFFFFFFFFFFFFFFFFFFFFFFFFFFFFFF AND DUP2 MSTORE PUSH1 0x20 ADD SWAP1 DUP2 MSTORE PUSH1 0x20 ADD PUSH0 KECCAK256 PUSH1 0x40 MLOAD DUP1 PUSH1 0x40 ADD PUSH1 0x40 MSTORE DUP1 DUP5 PUSH20 0xFFFFFFFFFFFFFFFFFFFFFFFFFFFFFFFFFFFFFFFF AND DUP2 MSTORE PUSH1 0x20 ADD DUP4 PUSH1 0xFF AND DUP2 MSTORE POP SWAP1 DUP1 PUSH1 0x1 DUP2 SLOAD ADD DUP1 DUP3 SSTORE DUP1 SWAP2 POP POP PUSH1 0x1 SWAP1 SUB SWAP1 PUSH0 MSTORE PUSH1 0x20 PUSH0 KECCAK256 ADD PUSH0 SWAP1 SWAP2 SWAP1 SWAP2 SWAP1 SWAP2 POP PUSH0 DUP3 ADD MLOAD DUP2 PUSH0 ADD PUSH0 PUSH2 0x100 EXP DUP2 SLOAD DUP2 PUSH20 0xFFFFFFFFFFFFFFFFFFFFFFFFFFFFFFFFFFFFFFFF MUL NOT AND SWAP1 DUP4 PUSH20 0xFFFFFFFFFFFFFFFFFFFFFFFFFFFFFFFFFFFFFFFF AND MUL OR SWAP1 SSTORE POP PUSH1 0x20 DUP3 ADD MLOAD DUP2 PUSH0 ADD PUSH1 0x14 PUSH2 0x100 EXP DUP2 SLOAD DUP2 PUSH1 0xFF MUL NOT AND SWAP1 DUP4 PUSH1 0xFF AND MUL OR SWAP1 SSTORE POP POP POP DUP3 PUSH1 0x1 PUSH0 DUP7 PUSH20 0xFFFFFFFFFFFFFFFFFFFFFFFFFFFFFFFFFFFFFFFF AND PUSH20 0xFFFFFFFFFFFFFFFFFFFFFFFFFFFFFFFFFFFFFFFF AND DUP2 MSTORE PUSH1 0x20 ADD SWAP1 DUP2 MSTORE PUSH1 0x20 ADD PUSH0 KECCAK256 SWAP1 DUP2 PUSH3 0x3BC SWAP2 SWAP1 PUSH3 0x7A7 JUMP JUMPDEST POP POP POP POP POP JUMP JUMPDEST PUSH0 DUP3 DUP3 MSTORE PUSH1 0x20 DUP3 ADD SWAP1 POP SWAP3 SWAP2 POP POP JUMP JUMPDEST PUSH32 0x4E6F742077686974656C69737465640000000000000000000000000000000000 PUSH0 DUP3 ADD MSTORE POP JUMP JUMPDEST PUSH0 PUSH3 0x409 PUSH1 0xF DUP4 PUSH3 0x3C3 JUMP JUMPDEST SWAP2 POP PUSH3 0x416 DUP3 PUSH3 0x3D3 JUMP JUMPDEST PUSH1 0x20 DUP3 ADD SWAP1 POP SWAP2 SWAP1 POP JUMP JUMPDEST PUSH0 PUSH1 0x20 DUP3 ADD SWAP1 POP DUP2 DUP2 SUB PUSH0 DUP4 ADD MSTORE PUSH3 0x43A DUP2 PUSH3 0x3FB JUMP JUMPDEST SWAP1 POP SWAP2 SWAP1 POP JUMP JUMPDEST PUSH32 0x5573657220616C726561647920616464656420746F206469737472696374732E PUSH0 DUP3 ADD MSTORE POP JUMP JUMPDEST PUSH0 PUSH3 0x477 PUSH1 0x20 DUP4 PUSH3 0x3C3 JUMP JUMPDEST SWAP2 POP PUSH3 0x484 DUP3 PUSH3 0x441 JUMP JUMPDEST PUSH1 0x20 DUP3 ADD SWAP1 POP SWAP2 SWAP1 POP JUMP JUMPDEST PUSH0 PUSH1 0x20 DUP3 ADD SWAP1 POP DUP2 DUP2 SUB PUSH0 DUP4 ADD MSTORE PUSH3 0x4A8 DUP2 PUSH3 0x469 JUMP JUMPDEST SWAP1 POP SWAP2 SWAP1 POP JUMP JUMPDEST PUSH32 0x4E487B7100000000000000000000000000000000000000000000000000000000 PUSH0 MSTORE PUSH1 0x22 PUSH1 0x4 MSTORE PUSH1 0x24 PUSH0 REVERT JUMPDEST PUSH0 PUSH1 0x2 DUP3 DIV SWAP1 POP PUSH1 0x1 DUP3 AND DUP1 PUSH3 0x4F4 JUMPI PUSH1 0x7F DUP3 AND SWAP2 POP JUMPDEST PUSH1 0x20 DUP3 LT DUP2 SUB PUSH3 0x50A JUMPI PUSH3 0x509 PUSH3 0x4AF JUMP JUMPDEST JUMPDEST POP SWAP2 SWAP1 POP JUMP JUMPDEST PUSH32 0x5573657220616C7265616479206861732061206865616C7468207265636F7264 PUSH0 DUP3 ADD MSTORE PUSH32 0x2E00000000000000000000000000000000000000000000000000000000000000 PUSH1 0x20 DUP3 ADD MSTORE POP JUMP JUMPDEST PUSH0 PUSH3 0x56C PUSH1 0x21 DUP4 PUSH3 0x3C3 JUMP JUMPDEST SWAP2 POP PUSH3 0x579 DUP3 PUSH3 0x510 JUMP JUMPDEST PUSH1 0x40 DUP3 ADD SWAP1 POP SWAP2 SWAP1 POP JUMP JUMPDEST PUSH0 PUSH1 0x20 DUP3 ADD SWAP1 POP DUP2 DUP2 SUB PUSH0 DUP4 ADD MSTORE PUSH3 0x59D DUP2 PUSH3 0x55E JUMP JUMPDEST SWAP1 POP SWAP2 SWAP1 POP JUMP JUMPDEST PUSH0 DUP2 MLOAD SWAP1 POP SWAP2 SWAP1 POP JUMP JUMPDEST PUSH32 0x4E487B7100000000000000000000000000000000000000000000000000000000 PUSH0 MSTORE PUSH1 0x41 PUSH1 0x4 MSTORE PUSH1 0x24 PUSH0 REVERT JUMPDEST PUSH0 DUP2 SWAP1 POP DUP2 PUSH0 MSTORE PUSH1 0x20 PUSH0 KECCAK256 SWAP1 POP SWAP2 SWAP1 POP JUMP JUMPDEST PUSH0 PUSH1 0x20 PUSH1 0x1F DUP4 ADD DIV SWAP1 POP SWAP2 SWAP1 POP JUMP JUMPDEST PUSH0 DUP3 DUP3 SHL SWAP1 POP SWAP3 SWAP2 POP POP JUMP JUMPDEST PUSH0 PUSH1 0x8 DUP4 MUL PUSH3 0x639 PUSH32 0xFFFFFFFFFFFFFFFFFFFFFFFFFFFFFFFFFFFFFFFFFFFFFFFFFFFFFFFFFFFFFFFF DUP3 PUSH3 0x5FC JUMP JUMPDEST PUSH3 0x645 DUP7 DUP4 PUSH3 0x5FC JUMP JUMPDEST SWAP6 POP DUP1 NOT DUP5 AND SWAP4 POP DUP1 DUP7 AND DUP5 OR SWAP3 POP POP POP SWAP4 SWAP3 POP POP POP JUMP JUMPDEST PUSH0 DUP2 SWAP1 POP SWAP2 SWAP1 POP JUMP JUMPDEST PUSH0 DUP2 SWAP1 POP SWAP2 SWAP1 POP JUMP JUMPDEST PUSH0 PUSH3 0x68F PUSH3 0x689 PUSH3 0x683 DUP5 PUSH3 0x65D JUMP JUMPDEST PUSH3 0x666 JUMP JUMPDEST PUSH3 0x65D JUMP JUMPDEST SWAP1 POP SWAP2 SWAP1 POP JUMP JUMPDEST PUSH0 DUP2 SWAP1 POP SWAP2 SWAP1 POP JUMP JUMPDEST PUSH3 0x6AA DUP4 PUSH3 0x66F JUMP JUMPDEST PUSH3 0x6C2 PUSH3 0x6B9 DUP3 PUSH3 0x696 JUMP JUMPDEST DUP5 DUP5 SLOAD PUSH3 0x608 JUMP JUMPDEST DUP3 SSTORE POP POP POP POP JUMP JUMPDEST PUSH0 SWAP1 JUMP JUMPDEST PUSH3 0x6D8 PUSH3 0x6CA JUMP JUMPDEST PUSH3 0x6E5 DUP2 DUP5 DUP5 PUSH3 0x69F JUMP JUMPDEST POP POP POP JUMP JUMPDEST JUMPDEST DUP2 DUP2 LT ISZERO PUSH3 0x70C JUMPI PUSH3 0x700 PUSH0 DUP3 PUSH3 0x6CE JUMP JUMPDEST PUSH1 0x1 DUP2 ADD SWAP1 POP PUSH3 0x6EB JUMP JUMPDEST POP POP JUMP JUMPDEST PUSH1 0x1F DUP3 GT ISZERO PUSH3 0x75B JUMPI PUSH3 0x725 DUP2 PUSH3 0x5DB JUMP JUMPDEST PUSH3 0x730 DUP5 PUSH3 0x5ED JUMP JUMPDEST DUP2 ADD PUSH1 0x20 DUP6 LT ISZERO PUSH3 0x740 JUMPI DUP2 SWAP1 POP JUMPDEST PUSH3 0x758 PUSH3 0x74F DUP6 PUSH3 0x5ED JUMP JUMPDEST DUP4 ADD DUP3 PUSH3 0x6EA JUMP JUMPDEST POP POP JUMPDEST POP POP POP JUMP JUMPDEST PUSH0 DUP3 DUP3 SHR SWAP1 POP SWAP3 SWAP2 POP POP JUMP JUMPDEST PUSH0 PUSH3 0x77D PUSH0 NOT DUP5 PUSH1 0x8 MUL PUSH3 0x760 JUMP JUMPDEST NOT DUP1 DUP4 AND SWAP2 POP POP SWAP3 SWAP2 POP POP JUMP JUMPDEST PUSH0 PUSH3 0x797 DUP4 DUP4 PUSH3 0x76C JUMP JUMPDEST SWAP2 POP DUP3 PUSH1 0x2 MUL DUP3 OR SWAP1 POP SWAP3 SWAP2 POP POP JUMP JUMPDEST PUSH3 0x7B2 DUP3 PUSH3 0x5A4 JUMP JUMPDEST PUSH8 0xFFFFFFFFFFFFFFFF DUP2 GT ISZERO PUSH3 0x7CE JUMPI PUSH3 0x7CD PUSH3 0x5AE JUMP JUMPDEST JUMPDEST PUSH3 0x7DA DUP3 SLOAD PUSH3 0x4DC JUMP JUMPDEST PUSH3 0x7E7 DUP3 DUP3 DUP6 PUSH3 0x710 JUMP JUMPDEST PUSH0 PUSH1 0x20 SWAP1 POP PUSH1 0x1F DUP4 GT PUSH1 0x1 DUP2 EQ PUSH3 0x81D JUMPI PUSH0 DUP5 ISZERO PUSH3 0x808 JUMPI DUP3 DUP8 ADD MLOAD SWAP1 POP JUMPDEST PUSH3 0x814 DUP6 DUP3 PUSH3 0x78A JUMP JUMPDEST DUP7 SSTORE POP PUSH3 0x883 JUMP JUMPDEST PUSH1 0x1F NOT DUP5 AND PUSH3 0x82D DUP7 PUSH3 0x5DB JUMP JUMPDEST PUSH0 JUMPDEST DUP3 DUP2 LT ISZERO PUSH3 0x856 JUMPI DUP5 DUP10 ADD MLOAD DUP3 SSTORE PUSH1 0x1 DUP3 ADD SWAP2 POP PUSH1 0x20 DUP6 ADD SWAP5 POP PUSH1 0x20 DUP2 ADD SWAP1 POP PUSH3 0x82F JUMP JUMPDEST DUP7 DUP4 LT ISZERO PUSH3 0x876 JUMPI DUP5 DUP10 ADD MLOAD PUSH3 0x872 PUSH1 0x1F DUP10 AND DUP3 PUSH3 0x76C JUMP JUMPDEST DUP4 SSTORE POP JUMPDEST PUSH1 0x1 PUSH1 0x2 DUP9 MUL ADD DUP9 SSTORE POP POP POP JUMPDEST POP POP POP POP POP POP JUMP JUMPDEST PUSH2 0x15AE DUP1 PUSH3 0x899 PUSH0 CODECOPY PUSH0 RETURN INVALID PUSH1 0x80 PUSH1 0x40 MSTORE CALLVALUE DUP1 ISZERO PUSH2 0xF JUMPI PUSH0 DUP1 REVERT JUMPDEST POP PUSH1 0x4 CALLDATASIZE LT PUSH2 0x9C JUMPI PUSH0 CALLDATALOAD PUSH1 0xE0 SHR DUP1 PUSH4 0xC7A87BAE GT PUSH2 0x64 JUMPI DUP1 PUSH4 0xC7A87BAE EQ PUSH2 0x169 JUMPI DUP1 PUSH4 0xE2B95B2E EQ PUSH2 0x185 JUMPI DUP1 PUSH4 0xE43252D7 EQ PUSH2 0x1B5 JUMPI DUP1 PUSH4 0xE744F40C EQ PUSH2 0x1D1 JUMPI DUP1 PUSH4 0xED4CC6F5 EQ PUSH2 0x201 JUMPI PUSH2 0x9C JUMP JUMPDEST DUP1 PUSH4 0xE267317 EQ PUSH2 0xA0 JUMPI DUP1 PUSH4 0x80CDB604 EQ PUSH2 0xBC JUMPI DUP1 PUSH4 0x8AB1D681 EQ PUSH2 0xEC JUMPI DUP1 PUSH4 0x9B19251A EQ PUSH2 0x108 JUMPI DUP1 PUSH4 0xAD2B28D2 EQ PUSH2 0x138 JUMPI JUMPDEST PUSH0 DUP1 REVERT JUMPDEST PUSH2 0xBA PUSH1 0x4 DUP1 CALLDATASIZE SUB DUP2 ADD SWAP1 PUSH2 0xB5 SWAP2 SWAP1 PUSH2 0xDCA JUMP JUMPDEST PUSH2 0x231 JUMP JUMPDEST STOP JUMPDEST PUSH2 0xD6 PUSH1 0x4 DUP1 CALLDATASIZE SUB DUP2 ADD SWAP1 PUSH2 0xD1 SWAP2 SWAP1 PUSH2 0xE7D JUMP JUMPDEST PUSH2 0x509 JUMP JUMPDEST PUSH1 0x40 MLOAD PUSH2 0xE3 SWAP2 SWAP1 PUSH2 0xECA JUMP JUMPDEST PUSH1 0x40 MLOAD DUP1 SWAP2 SUB SWAP1 RETURN JUMPDEST PUSH2 0x106 PUSH1 0x4 DUP1 CALLDATASIZE SUB DUP2 ADD SWAP1 PUSH2 0x101 SWAP2 SWAP1 PUSH2 0xEE3 JUMP JUMPDEST PUSH2 0x630 JUMP JUMPDEST STOP JUMPDEST PUSH2 0x122 PUSH1 0x4 DUP1 CALLDATASIZE SUB DUP2 ADD SWAP1 PUSH2 0x11D SWAP2 SWAP1 PUSH2 0xEE3 JUMP JUMPDEST PUSH2 0x710 JUMP JUMPDEST PUSH1 0x40 MLOAD PUSH2 0x12F SWAP2 SWAP1 PUSH2 0xF28 JUMP JUMPDEST PUSH1 0x40 MLOAD DUP1 SWAP2 SUB SWAP1 RETURN JUMPDEST PUSH2 0x152 PUSH1 0x4 DUP1 CALLDATASIZE SUB DUP2 ADD SWAP1 PUSH2 0x14D SWAP2 SWAP1 PUSH2 0xE7D JUMP JUMPDEST PUSH2 0x72D JUMP JUMPDEST PUSH1 0x40 MLOAD PUSH2 0x160 SWAP3 SWAP2 SWAP1 PUSH2 0xF50 JUMP JUMPDEST PUSH1 0x40 MLOAD DUP1 SWAP2 SUB SWAP1 RETURN JUMPDEST PUSH2 0x183 PUSH1 0x4 DUP1 CALLDATASIZE SUB DUP2 ADD SWAP1 PUSH2 0x17E SWAP2 SWAP1 PUSH2 0xF77 JUMP JUMPDEST PUSH2 0x78D JUMP JUMPDEST STOP JUMPDEST PUSH2 0x19F PUSH1 0x4 DUP1 CALLDATASIZE SUB DUP2 ADD SWAP1 PUSH2 0x19A SWAP2 SWAP1 PUSH2 0xEE3 JUMP JUMPDEST PUSH2 0x7DD JUMP JUMPDEST PUSH1 0x40 MLOAD PUSH2 0x1AC SWAP2 SWAP1 PUSH2 0x105D JUMP JUMPDEST PUSH1 0x40 MLOAD DUP1 SWAP2 SUB SWAP1 RETURN JUMPDEST PUSH2 0x1CF PUSH1 0x4 DUP1 CALLDATASIZE SUB DUP2 ADD SWAP1 PUSH2 0x1CA SWAP2 SWAP1 PUSH2 0xEE3 JUMP JUMPDEST PUSH2 0x878 JUMP JUMPDEST STOP JUMPDEST PUSH2 0x1EB PUSH1 0x4 DUP1 CALLDATASIZE SUB DUP2 ADD SWAP1 PUSH2 0x1E6 SWAP2 SWAP1 PUSH2 0xE7D JUMP JUMPDEST PUSH2 0x959 JUMP JUMPDEST PUSH1 0x40 MLOAD PUSH2 0x1F8 SWAP2 SWAP1 PUSH2 0x107D JUMP JUMPDEST PUSH1 0x40 MLOAD DUP1 SWAP2 SUB SWAP1 RETURN JUMPDEST PUSH2 0x21B PUSH1 0x4 DUP1 CALLDATASIZE SUB DUP2 ADD SWAP1 PUSH2 0x216 SWAP2 SWAP1 PUSH2 0xE7D JUMP JUMPDEST PUSH2 0xA7F JUMP JUMPDEST PUSH1 0x40 MLOAD PUSH2 0x228 SWAP2 SWAP1 PUSH2 0xF28 JUMP JUMPDEST PUSH1 0x40 MLOAD DUP1 SWAP2 SUB SWAP1 RETURN JUMPDEST PUSH1 0x2 PUSH0 CALLER PUSH20 0xFFFFFFFFFFFFFFFFFFFFFFFFFFFFFFFFFFFFFFFF AND PUSH20 0xFFFFFFFFFFFFFFFFFFFFFFFFFFFFFFFFFFFFFFFF AND DUP2 MSTORE PUSH1 0x20 ADD SWAP1 DUP2 MSTORE PUSH1 0x20 ADD PUSH0 KECCAK256 PUSH0 SWAP1 SLOAD SWAP1 PUSH2 0x100 EXP SWAP1 DIV PUSH1 0xFF AND PUSH2 0x2BA JUMPI PUSH1 0x40 MLOAD PUSH32 0x8C379A000000000000000000000000000000000000000000000000000000000 DUP2 MSTORE PUSH1 0x4 ADD PUSH2 0x2B1 SWAP1 PUSH2 0x10E0 JUMP JUMPDEST PUSH1 0x40 MLOAD DUP1 SWAP2 SUB SWAP1 REVERT JUMPDEST PUSH0 DUP1 PUSH0 DUP7 PUSH20 0xFFFFFFFFFFFFFFFFFFFFFFFFFFFFFFFFFFFFFFFF AND PUSH20 0xFFFFFFFFFFFFFFFFFFFFFFFFFFFFFFFFFFFFFFFF AND DUP2 MSTORE PUSH1 0x20 ADD SWAP1 DUP2 MSTORE PUSH1 0x20 ADD PUSH0 KECCAK256 DUP1 SLOAD SWAP1 POP EQ PUSH2 0x33B JUMPI PUSH1 0x40 MLOAD PUSH32 0x8C379A000000000000000000000000000000000000000000000000000000000 DUP2 MSTORE PUSH1 0x4 ADD PUSH2 0x332 SWAP1 PUSH2 0x1148 JUMP JUMPDEST PUSH1 0x40 MLOAD DUP1 SWAP2 SUB SWAP1 REVERT JUMPDEST PUSH0 PUSH1 0x1 PUSH0 DUP7 PUSH20 0xFFFFFFFFFFFFFFFFFFFFFFFFFFFFFFFFFFFFFFFF AND PUSH20 0xFFFFFFFFFFFFFFFFFFFFFFFFFFFFFFFFFFFFFFFF AND DUP2 MSTORE PUSH1 0x20 ADD SWAP1 DUP2 MSTORE PUSH1 0x20 ADD PUSH0 KECCAK256 DUP1 SLOAD PUSH2 0x384 SWAP1 PUSH2 0x1193 JUMP JUMPDEST SWAP1 POP EQ PUSH2 0x3C6 JUMPI PUSH1 0x40 MLOAD PUSH32 0x8C379A000000000000000000000000000000000000000000000000000000000 DUP2 MSTORE PUSH1 0x4 ADD PUSH2 0x3BD SWAP1 PUSH2 0x1233 JUMP JUMPDEST PUSH1 0x40 MLOAD DUP1 SWAP2 SUB SWAP1 REVERT JUMPDEST PUSH0 DUP1 DUP6 PUSH20 0xFFFFFFFFFFFFFFFFFFFFFFFFFFFFFFFFFFFFFFFF AND PUSH20 0xFFFFFFFFFFFFFFFFFFFFFFFFFFFFFFFFFFFFFFFF AND DUP2 MSTORE PUSH1 0x20 ADD SWAP1 DUP2 MSTORE PUSH1 0x20 ADD PUSH0 KECCAK256 PUSH1 0x40 MLOAD DUP1 PUSH1 0x40 ADD PUSH1 0x40 MSTORE DUP1 DUP5 PUSH20 0xFFFFFFFFFFFFFFFFFFFFFFFFFFFFFFFFFFFFFFFF AND DUP2 MSTORE PUSH1 0x20 ADD DUP4 PUSH1 0xFF AND DUP2 MSTORE POP SWAP1 DUP1 PUSH1 0x1 DUP2 SLOAD ADD DUP1 DUP3 SSTORE DUP1 SWAP2 POP POP PUSH1 0x1 SWAP1 SUB SWAP1 PUSH0 MSTORE PUSH1 0x20 PUSH0 KECCAK256 ADD PUSH0 SWAP1 SWAP2 SWAP1 SWAP2 SWAP1 SWAP2 POP PUSH0 DUP3 ADD MLOAD DUP2 PUSH0 ADD PUSH0 PUSH2 0x100 EXP DUP2 SLOAD DUP2 PUSH20 0xFFFFFFFFFFFFFFFFFFFFFFFFFFFFFFFFFFFFFFFF MUL NOT AND SWAP1 DUP4 PUSH20 0xFFFFFFFFFFFFFFFFFFFFFFFFFFFFFFFFFFFFFFFF AND MUL OR SWAP1 SSTORE POP PUSH1 0x20 DUP3 ADD MLOAD DUP2 PUSH0 ADD PUSH1 0x14 PUSH2 0x100 EXP DUP2 SLOAD DUP2 PUSH1 0xFF MUL NOT AND SWAP1 DUP4 PUSH1 0xFF AND MUL OR SWAP1 SSTORE POP POP POP DUP3 PUSH1 0x1 PUSH0 DUP7 PUSH20 0xFFFFFFFFFFFFFFFFFFFFFFFFFFFFFFFFFFFFFFFF AND PUSH20 0xFFFFFFFFFFFFFFFFFFFFFFFFFFFFFFFFFFFFFFFF AND DUP2 MSTORE PUSH1 0x20 ADD SWAP1 DUP2 MSTORE PUSH1 0x20 ADD PUSH0 KECCAK256 SWAP1 DUP2 PUSH2 0x502 SWAP2 SWAP1 PUSH2 0x13EE JUMP JUMPDEST POP POP POP POP POP JUMP JUMPDEST PUSH0 DUP1 PUSH0 DUP1 DUP6 PUSH20 0xFFFFFFFFFFFFFFFFFFFFFFFFFFFFFFFFFFFFFFFF AND PUSH20 0xFFFFFFFFFFFFFFFFFFFFFFFFFFFFFFFFFFFFFFFF AND DUP2 MSTORE PUSH1 0x20 ADD SWAP1 DUP2 MSTORE PUSH1 0x20 ADD PUSH0 KECCAK256 DUP1 SLOAD DUP1 PUSH1 0x20 MUL PUSH1 0x20 ADD PUSH1 0x40 MLOAD SWAP1 DUP2 ADD PUSH1 0x40 MSTORE DUP1 SWAP3 SWAP2 SWAP1 DUP2 DUP2 MSTORE PUSH1 0x20 ADD PUSH0 SWAP1 JUMPDEST DUP3 DUP3 LT ISZERO PUSH2 0x602 JUMPI DUP4 DUP3 SWAP1 PUSH0 MSTORE PUSH1 0x20 PUSH0 KECCAK256 ADD PUSH1 0x40 MLOAD DUP1 PUSH1 0x40 ADD PUSH1 0x40 MSTORE SWAP1 DUP2 PUSH0 DUP3 ADD PUSH0 SWAP1 SLOAD SWAP1 PUSH2 0x100 EXP SWAP1 DIV PUSH20 0xFFFFFFFFFFFFFFFFFFFFFFFFFFFFFFFFFFFFFFFF AND PUSH20 0xFFFFFFFFFFFFFFFFFFFFFFFFFFFFFFFFFFFFFFFF AND PUSH20 0xFFFFFFFFFFFFFFFFFFFFFFFFFFFFFFFFFFFFFFFF AND DUP2 MSTORE PUSH1 0x20 ADD PUSH0 DUP3 ADD PUSH1 0x14 SWAP1 SLOAD SWAP1 PUSH2 0x100 EXP SWAP1 DIV PUSH1 0xFF AND PUSH1 0xFF AND PUSH1 0xFF AND DUP2 MSTORE POP POP DUP2 MSTORE PUSH1 0x20 ADD SWAP1 PUSH1 0x1 ADD SWAP1 PUSH2 0x566 JUMP JUMPDEST POP POP POP POP SWAP1 POP DUP1 DUP4 DUP2 MLOAD DUP2 LT PUSH2 0x61B JUMPI PUSH2 0x61A PUSH2 0x14BD JUMP JUMPDEST JUMPDEST PUSH1 0x20 MUL PUSH1 0x20 ADD ADD MLOAD PUSH1 0x20 ADD MLOAD SWAP2 POP POP SWAP3 SWAP2 POP POP JUMP JUMPDEST PUSH1 0x2 PUSH0 CALLER PUSH20 0xFFFFFFFFFFFFFFFFFFFFFFFFFFFFFFFFFFFFFFFF AND PUSH20 0xFFFFFFFFFFFFFFFFFFFFFFFFFFFFFFFFFFFFFFFF AND DUP2 MSTORE PUSH1 0x20 ADD SWAP1 DUP2 MSTORE PUSH1 0x20 ADD PUSH0 KECCAK256 PUSH0 SWAP1 SLOAD SWAP1 PUSH2 0x100 EXP SWAP1 DIV PUSH1 0xFF AND PUSH2 0x6B9 JUMPI PUSH1 0x40 MLOAD PUSH32 0x8C379A000000000000000000000000000000000000000000000000000000000 DUP2 MSTORE PUSH1 0x4 ADD PUSH2 0x6B0 SWAP1 PUSH2 0x10E0 JUMP JUMPDEST PUSH1 0x40 MLOAD DUP1 SWAP2 SUB SWAP1 REVERT JUMPDEST PUSH0 PUSH1 0x2 PUSH0 DUP4 PUSH20 0xFFFFFFFFFFFFFFFFFFFFFFFFFFFFFFFFFFFFFFFF AND PUSH20 0xFFFFFFFFFFFFFFFFFFFFFFFFFFFFFFFFFFFFFFFF AND DUP2 MSTORE PUSH1 0x20 ADD SWAP1 DUP2 MSTORE PUSH1 0x20 ADD PUSH0 KECCAK256 PUSH0 PUSH2 0x100 EXP DUP2 SLOAD DUP2 PUSH1 0xFF MUL NOT AND SWAP1 DUP4 ISZERO ISZERO MUL OR SWAP1 SSTORE POP POP JUMP JUMPDEST PUSH1 0x2 PUSH1 0x20 MSTORE DUP1 PUSH0 MSTORE PUSH1 0x40 PUSH0 KECCAK256 PUSH0 SWAP2 POP SLOAD SWAP1 PUSH2 0x100 EXP SWAP1 DIV PUSH1 0xFF AND DUP2 JUMP JUMPDEST PUSH0 PUSH1 0x20 MSTORE DUP2 PUSH0 MSTORE PUSH1 0x40 PUSH0 KECCAK256 DUP2 DUP2 SLOAD DUP2 LT PUSH2 0x745 JUMPI PUSH0 DUP1 REVERT JUMPDEST SWAP1 PUSH0 MSTORE PUSH1 0x20 PUSH0 KECCAK256 ADD PUSH0 SWAP2 POP SWAP2 POP POP DUP1 PUSH0 ADD PUSH0 SWAP1 SLOAD SWAP1 PUSH2 0x100 EXP SWAP1 DIV PUSH20 0xFFFFFFFFFFFFFFFFFFFFFFFFFFFFFFFFFFFFFFFF AND SWAP1 DUP1 PUSH0 ADD PUSH1 0x14 SWAP1 SLOAD SWAP1 PUSH2 0x100 EXP SWAP1 DIV PUSH1 0xFF AND SWAP1 POP DUP3 JUMP JUMPDEST DUP1 PUSH1 0x1 PUSH0 DUP6 PUSH20 0xFFFFFFFFFFFFFFFFFFFFFFFFFFFFFFFFFFFFFFFF AND PUSH20 0xFFFFFFFFFFFFFFFFFFFFFFFFFFFFFFFFFFFFFFFF AND DUP2 MSTORE PUSH1 0x20 ADD SWAP1 DUP2 MSTORE PUSH1 0x20 ADD PUSH0 KECCAK256 SWAP1 DUP2 PUSH2 0x7D7 SWAP2 SWAP1 PUSH2 0x13EE JUMP JUMPDEST POP POP POP POP JUMP JUMPDEST PUSH1 0x1 PUSH1 0x20 MSTORE DUP1 PUSH0 MSTORE PUSH1 0x40 PUSH0 KECCAK256 PUSH0 SWAP2 POP SWAP1 POP DUP1 SLOAD PUSH2 0x7F9 SWAP1 PUSH2 0x1193 JUMP JUMPDEST DUP1 PUSH1 0x1F ADD PUSH1 0x20 DUP1 SWAP2 DIV MUL PUSH1 0x20 ADD PUSH1 0x40 MLOAD SWAP1 DUP2 ADD PUSH1 0x40 MSTORE DUP1 SWAP3 SWAP2 SWAP1 DUP2 DUP2 MSTORE PUSH1 0x20 ADD DUP3 DUP1 SLOAD PUSH2 0x825 SWAP1 PUSH2 0x1193 JUMP JUMPDEST DUP1 ISZERO PUSH2 0x870 JUMPI DUP1 PUSH1 0x1F LT PUSH2 0x847 JUMPI PUSH2 0x100 DUP1 DUP4 SLOAD DIV MUL DUP4 MSTORE SWAP2 PUSH1 0x20 ADD SWAP2 PUSH2 0x870 JUMP JUMPDEST DUP3 ADD SWAP2 SWAP1 PUSH0 MSTORE PUSH1 0x20 PUSH0 KECCAK256 SWAP1 JUMPDEST DUP2 SLOAD DUP2 MSTORE SWAP1 PUSH1 0x1 ADD SWAP1 PUSH1 0x20 ADD DUP1 DUP4 GT PUSH2 0x853 JUMPI DUP3 SWAP1 SUB PUSH1 0x1F AND DUP3 ADD SWAP2 JUMPDEST POP POP POP POP POP DUP2 JUMP JUMPDEST PUSH1 0x2 PUSH0 CALLER PUSH20 0xFFFFFFFFFFFFFFFFFFFFFFFFFFFFFFFFFFFFFFFF AND PUSH20 0xFFFFFFFFFFFFFFFFFFFFFFFFFFFFFFFFFFFFFFFF AND DUP2 MSTORE PUSH1 0x20 ADD SWAP1 DUP2 MSTORE PUSH1 0x20 ADD PUSH0 KECCAK256 PUSH0 SWAP1 SLOAD SWAP1 PUSH2 0x100 EXP SWAP1 DIV PUSH1 0xFF AND PUSH2 0x901 JUMPI PUSH1 0x40 MLOAD PUSH32 0x8C379A000000000000000000000000000000000000000000000000000000000 DUP2 MSTORE PUSH1 0x4 ADD PUSH2 0x8F8 SWAP1 PUSH2 0x10E0 JUMP JUMPDEST PUSH1 0x40 MLOAD DUP1 SWAP2 SUB SWAP1 REVERT JUMPDEST PUSH1 0x1 PUSH1 0x2 PUSH0 DUP4 PUSH20 0xFFFFFFFFFFFFFFFFFFFFFFFFFFFFFFFFFFFFFFFF AND PUSH20 0xFFFFFFFFFFFFFFFFFFFFFFFFFFFFFFFFFFFFFFFF AND DUP2 MSTORE PUSH1 0x20 ADD SWAP1 DUP2 MSTORE PUSH1 0x20 ADD PUSH0 KECCAK256 PUSH0 PUSH2 0x100 EXP DUP2 SLOAD DUP2 PUSH1 0xFF MUL NOT AND SWAP1 DUP4 ISZERO ISZERO MUL OR SWAP1 SSTORE POP POP JUMP JUMPDEST PUSH0 DUP1 PUSH0 DUP1 DUP6 PUSH20 0xFFFFFFFFFFFFFFFFFFFFFFFFFFFFFFFFFFFFFFFF AND PUSH20 0xFFFFFFFFFFFFFFFFFFFFFFFFFFFFFFFFFFFFFFFF AND DUP2 MSTORE PUSH1 0x20 ADD SWAP1 DUP2 MSTORE PUSH1 0x20 ADD PUSH0 KECCAK256 DUP1 SLOAD DUP1 PUSH1 0x20 MUL PUSH1 0x20 ADD PUSH1 0x40 MLOAD SWAP1 DUP2 ADD PUSH1 0x40 MSTORE DUP1 SWAP3 SWAP2 SWAP1 DUP2 DUP2 MSTORE PUSH1 0x20 ADD PUSH0 SWAP1 JUMPDEST DUP3 DUP3 LT ISZERO PUSH2 0xA52 JUMPI DUP4 DUP3 SWAP1 PUSH0 MSTORE PUSH1 0x20 PUSH0 KECCAK256 ADD PUSH1 0x40 MLOAD DUP1 PUSH1 0x40 ADD PUSH1 0x40 MSTORE SWAP1 DUP2 PUSH0 DUP3 ADD PUSH0 SWAP1 SLOAD SWAP1 PUSH2 0x100 EXP SWAP1 DIV PUSH20 0xFFFFFFFFFFFFFFFFFFFFFFFFFFFFFFFFFFFFFFFF AND PUSH20 0xFFFFFFFFFFFFFFFFFFFFFFFFFFFFFFFFFFFFFFFF AND PUSH20 0xFFFFFFFFFFFFFFFFFFFFFFFFFFFFFFFFFFFFFFFF AND DUP2 MSTORE PUSH1 0x20 ADD PUSH0 DUP3 ADD PUSH1 0x14 SWAP1 SLOAD SWAP1 PUSH2 0x100 EXP SWAP1 DIV PUSH1 0xFF AND PUSH1 0xFF AND PUSH1 0xFF AND DUP2 MSTORE POP POP DUP2 MSTORE PUSH1 0x20 ADD SWAP1 PUSH1 0x1 ADD SWAP1 PUSH2 0x9B6 JUMP JUMPDEST POP POP POP POP SWAP1 POP DUP1 DUP4 DUP2 MLOAD DUP2 LT PUSH2 0xA6B JUMPI PUSH2 0xA6A PUSH2 0x14BD JUMP JUMPDEST JUMPDEST PUSH1 0x20 MUL PUSH1 0x20 ADD ADD MLOAD PUSH0 ADD MLOAD SWAP2 POP POP SWAP3 SWAP2 POP POP JUMP JUMPDEST PUSH0 DUP1 PUSH0 DUP1 DUP6 PUSH20 0xFFFFFFFFFFFFFFFFFFFFFFFFFFFFFFFFFFFFFFFF AND PUSH20 0xFFFFFFFFFFFFFFFFFFFFFFFFFFFFFFFFFFFFFFFF AND DUP2 MSTORE PUSH1 0x20 ADD SWAP1 DUP2 MSTORE PUSH1 0x20 ADD PUSH0 KECCAK256 DUP1 SLOAD DUP1 PUSH1 0x20 MUL PUSH1 0x20 ADD PUSH1 0x40 MLOAD SWAP1 DUP2 ADD PUSH1 0x40 MSTORE DUP1 SWAP3 SWAP2 SWAP1 DUP2 DUP2 MSTORE PUSH1 0x20 ADD PUSH0 SWAP1 JUMPDEST DUP3 DUP3 LT ISZERO PUSH2 0xB78 JUMPI DUP4 DUP3 SWAP1 PUSH0 MSTORE PUSH1 0x20 PUSH0 KECCAK256 ADD PUSH1 0x40 MLOAD DUP1 PUSH1 0x40 ADD PUSH1 0x40 MSTORE SWAP1 DUP2 PUSH0 DUP3 ADD PUSH0 SWAP1 SLOAD SWAP1 PUSH2 0x100 EXP SWAP1 DIV PUSH20 0xFFFFFFFFFFFFFFFFFFFFFFFFFFFFFFFFFFFFFFFF AND PUSH20 0xFFFFFFFFFFFFFFFFFFFFFFFFFFFFFFFFFFFFFFFF AND PUSH20 0xFFFFFFFFFFFFFFFFFFFFFFFFFFFFFFFFFFFFFFFF AND DUP2 MSTORE PUSH1 0x20 ADD PUSH0 DUP3 ADD PUSH1 0x14 SWAP1 SLOAD SWAP1 PUSH2 0x100 EXP SWAP1 DIV PUSH1 0xFF AND PUSH1 0xFF AND PUSH1 0xFF AND DUP2 MSTORE POP POP DUP2 MSTORE PUSH1 0x20 ADD SWAP1 PUSH1 0x1 ADD SWAP1 PUSH2 0xADC JUMP JUMPDEST POP POP POP POP SWAP1 POP PUSH1 0x64 DUP2 DUP5 DUP2 MLOAD DUP2 LT PUSH2 0xB93 JUMPI PUSH2 0xB92 PUSH2 0x14BD JUMP JUMPDEST JUMPDEST PUSH1 0x20 MUL PUSH1 0x20 ADD ADD MLOAD PUSH1 0x20 ADD MLOAD PUSH1 0xFF AND EQ PUSH2 0xBE2 JUMPI PUSH1 0x40 MLOAD PUSH32 0x8C379A000000000000000000000000000000000000000000000000000000000 DUP2 MSTORE PUSH1 0x4 ADD PUSH2 0xBD9 SWAP1 PUSH2 0x155A JUMP JUMPDEST PUSH1 0x40 MLOAD DUP1 SWAP2 SUB SWAP1 REVERT JUMPDEST PUSH1 0x1 SWAP2 POP POP SWAP3 SWAP2 POP POP JUMP JUMPDEST PUSH0 PUSH1 0x40 MLOAD SWAP1 POP SWAP1 JUMP JUMPDEST PUSH0 DUP1 REVERT JUMPDEST PUSH0 DUP1 REVERT JUMPDEST PUSH0 PUSH20 0xFFFFFFFFFFFFFFFFFFFFFFFFFFFFFFFFFFFFFFFF DUP3 AND SWAP1 POP SWAP2 SWAP1 POP JUMP JUMPDEST PUSH0 PUSH2 0xC27 DUP3 PUSH2 0xBFE JUMP JUMPDEST SWAP1 POP SWAP2 SWAP1 POP JUMP JUMPDEST PUSH2 0xC37 DUP2 PUSH2 0xC1D JUMP JUMPDEST DUP2 EQ PUSH2 0xC41 JUMPI PUSH0 DUP1 REVERT JUMPDEST POP JUMP JUMPDEST PUSH0 DUP2 CALLDATALOAD SWAP1 POP PUSH2 0xC52 DUP2 PUSH2 0xC2E JUMP JUMPDEST SWAP3 SWAP2 POP POP JUMP JUMPDEST PUSH0 DUP1 REVERT JUMPDEST PUSH0 DUP1 REVERT JUMPDEST PUSH0 PUSH1 0x1F NOT PUSH1 0x1F DUP4 ADD AND SWAP1 POP SWAP2 SWAP1 POP JUMP JUMPDEST PUSH32 0x4E487B7100000000000000000000000000000000000000000000000000000000 PUSH0 MSTORE PUSH1 0x41 PUSH1 0x4 MSTORE PUSH1 0x24 PUSH0 REVERT JUMPDEST PUSH2 0xCA6 DUP3 PUSH2 0xC60 JUMP JUMPDEST DUP2 ADD DUP2 DUP2 LT PUSH8 0xFFFFFFFFFFFFFFFF DUP3 GT OR ISZERO PUSH2 0xCC5 JUMPI PUSH2 0xCC4 PUSH2 0xC70 JUMP JUMPDEST JUMPDEST DUP1 PUSH1 0x40 MSTORE POP POP POP JUMP JUMPDEST PUSH0 PUSH2 0xCD7 PUSH2 0xBED JUMP JUMPDEST SWAP1 POP PUSH2 0xCE3 DUP3 DUP3 PUSH2 0xC9D JUMP JUMPDEST SWAP2 SWAP1 POP JUMP JUMPDEST PUSH0 PUSH8 0xFFFFFFFFFFFFFFFF DUP3 GT ISZERO PUSH2 0xD02 JUMPI PUSH2 0xD01 PUSH2 0xC70 JUMP JUMPDEST JUMPDEST PUSH2 0xD0B DUP3 PUSH2 0xC60 JUMP JUMPDEST SWAP1 POP PUSH1 0x20 DUP2 ADD SWAP1 POP SWAP2 SWAP1 POP JUMP JUMPDEST DUP3 DUP2 DUP4 CALLDATACOPY PUSH0 DUP4 DUP4 ADD MSTORE POP POP POP JUMP JUMPDEST PUSH0 PUSH2 0xD38 PUSH2 0xD33 DUP5 PUSH2 0xCE8 JUMP JUMPDEST PUSH2 0xCCE JUMP JUMPDEST SWAP1 POP DUP3 DUP2 MSTORE PUSH1 0x20 DUP2 ADD DUP5 DUP5 DUP5 ADD GT ISZERO PUSH2 0xD54 JUMPI PUSH2 0xD53 PUSH2 0xC5C JUMP JUMPDEST JUMPDEST PUSH2 0xD5F DUP5 DUP3 DUP6 PUSH2 0xD18 JUMP JUMPDEST POP SWAP4 SWAP3 POP POP POP JUMP JUMPDEST PUSH0 DUP3 PUSH1 0x1F DUP4 ADD SLT PUSH2 0xD7B JUMPI PUSH2 0xD7A PUSH2 0xC58 JUMP JUMPDEST JUMPDEST DUP2 CALLDATALOAD PUSH2 0xD8B DUP5 DUP3 PUSH1 0x20 DUP7 ADD PUSH2 0xD26 JUMP JUMPDEST SWAP2 POP POP SWAP3 SWAP2 POP POP JUMP JUMPDEST PUSH0 PUSH1 0xFF DUP3 AND SWAP1 POP SWAP2 SWAP1 POP JUMP JUMPDEST PUSH2 0xDA9 DUP2 PUSH2 0xD94 JUMP JUMPDEST DUP2 EQ PUSH2 0xDB3 JUMPI PUSH0 DUP1 REVERT JUMPDEST POP JUMP JUMPDEST PUSH0 DUP2 CALLDATALOAD SWAP1 POP PUSH2 0xDC4 DUP2 PUSH2 0xDA0 JUMP JUMPDEST SWAP3 SWAP2 POP POP JUMP JUMPDEST PUSH0 DUP1 PUSH0 DUP1 PUSH1 0x80 DUP6 DUP8 SUB SLT ISZERO PUSH2 0xDE2 JUMPI PUSH2 0xDE1 PUSH2 0xBF6 JUMP JUMPDEST JUMPDEST PUSH0 PUSH2 0xDEF DUP8 DUP3 DUP9 ADD PUSH2 0xC44 JUMP JUMPDEST SWAP5 POP POP PUSH1 0x20 DUP6 ADD CALLDATALOAD PUSH8 0xFFFFFFFFFFFFFFFF DUP2 GT ISZERO PUSH2 0xE10 JUMPI PUSH2 0xE0F PUSH2 0xBFA JUMP JUMPDEST JUMPDEST PUSH2 0xE1C DUP8 DUP3 DUP9 ADD PUSH2 0xD67 JUMP JUMPDEST SWAP4 POP POP PUSH1 0x40 PUSH2 0xE2D DUP8 DUP3 DUP9 ADD PUSH2 0xC44 JUMP JUMPDEST SWAP3 POP POP PUSH1 0x60 PUSH2 0xE3E DUP8 DUP3 DUP9 ADD PUSH2 0xDB6 JUMP JUMPDEST SWAP2 POP POP SWAP3 SWAP6 SWAP2 SWAP5 POP SWAP3 POP JUMP JUMPDEST PUSH0 DUP2 SWAP1 POP SWAP2 SWAP1 POP JUMP JUMPDEST PUSH2 0xE5C DUP2 PUSH2 0xE4A JUMP JUMPDEST DUP2 EQ PUSH2 0xE66 JUMPI PUSH0 DUP1 REVERT JUMPDEST POP JUMP JUMPDEST PUSH0 DUP2 CALLDATALOAD SWAP1 POP PUSH2 0xE77 DUP2 PUSH2 0xE53 JUMP JUMPDEST SWAP3 SWAP2 POP POP JUMP JUMPDEST PUSH0 DUP1 PUSH1 0x40 DUP4 DUP6 SUB SLT ISZERO PUSH2 0xE93 JUMPI PUSH2 0xE92 PUSH2 0xBF6 JUMP JUMPDEST JUMPDEST PUSH0 PUSH2 0xEA0 DUP6 DUP3 DUP7 ADD PUSH2 0xC44 JUMP JUMPDEST SWAP3 POP POP PUSH1 0x20 PUSH2 0xEB1 DUP6 DUP3 DUP7 ADD PUSH2 0xE69 JUMP JUMPDEST SWAP2 POP POP SWAP3 POP SWAP3 SWAP1 POP JUMP JUMPDEST PUSH2 0xEC4 DUP2 PUSH2 0xD94 JUMP JUMPDEST DUP3 MSTORE POP POP JUMP JUMPDEST PUSH0 PUSH1 0x20 DUP3 ADD SWAP1 POP PUSH2 0xEDD PUSH0 DUP4 ADD DUP5 PUSH2 0xEBB JUMP JUMPDEST SWAP3 SWAP2 POP POP JUMP JUMPDEST PUSH0 PUSH1 0x20 DUP3 DUP5 SUB SLT ISZERO PUSH2 0xEF8 JUMPI PUSH2 0xEF7 PUSH2 0xBF6 JUMP JUMPDEST JUMPDEST PUSH0 PUSH2 0xF05 DUP5 DUP3 DUP6 ADD PUSH2 0xC44 JUMP JUMPDEST SWAP2 POP POP SWAP3 SWAP2 POP POP JUMP JUMPDEST PUSH0 DUP2 ISZERO ISZERO SWAP1 POP SWAP2 SWAP1 POP JUMP JUMPDEST PUSH2 0xF22 DUP2 PUSH2 0xF0E JUMP JUMPDEST DUP3 MSTORE POP POP JUMP JUMPDEST PUSH0 PUSH1 0x20 DUP3 ADD SWAP1 POP PUSH2 0xF3B PUSH0 DUP4 ADD DUP5 PUSH2 0xF19 JUMP JUMPDEST SWAP3 SWAP2 POP POP JUMP JUMPDEST PUSH2 0xF4A DUP2 PUSH2 0xC1D JUMP JUMPDEST DUP3 MSTORE POP POP JUMP JUMPDEST PUSH0 PUSH1 0x40 DUP3 ADD SWAP1 POP PUSH2 0xF63 PUSH0 DUP4 ADD DUP6 PUSH2 0xF41 JUMP JUMPDEST PUSH2 0xF70 PUSH1 0x20 DUP4 ADD DUP5 PUSH2 0xEBB JUMP JUMPDEST SWAP4 SWAP3 POP POP POP JUMP JUMPDEST PUSH0 DUP1 PUSH0 PUSH1 0x60 DUP5 DUP7 SUB SLT ISZERO PUSH2 0xF8E JUMPI PUSH2 0xF8D PUSH2 0xBF6 JUMP JUMPDEST JUMPDEST PUSH0 PUSH2 0xF9B DUP7 DUP3 DUP8 ADD PUSH2 0xC44 JUMP JUMPDEST SWAP4 POP POP PUSH1 0x20 PUSH2 0xFAC DUP7 DUP3 DUP8 ADD PUSH2 0xE69 JUMP JUMPDEST SWAP3 POP POP PUSH1 0x40 DUP5 ADD CALLDATALOAD PUSH8 0xFFFFFFFFFFFFFFFF DUP2 GT ISZERO PUSH2 0xFCD JUMPI PUSH2 0xFCC PUSH2 0xBFA JUMP JUMPDEST JUMPDEST PUSH2 0xFD9 DUP7 DUP3 DUP8 ADD PUSH2 0xD67 JUMP JUMPDEST SWAP2 POP POP SWAP3 POP SWAP3 POP SWAP3 JUMP JUMPDEST PUSH0 DUP2 MLOAD SWAP1 POP SWAP2 SWAP1 POP JUMP JUMPDEST PUSH0 DUP3 DUP3 MSTORE PUSH1 0x20 DUP3 ADD SWAP1 POP SWAP3 SWAP2 POP POP JUMP JUMPDEST PUSH0 JUMPDEST DUP4 DUP2 LT ISZERO PUSH2 0x101A JUMPI DUP1 DUP3 ADD MLOAD DUP2 DUP5 ADD MSTORE PUSH1 0x20 DUP2 ADD SWAP1 POP PUSH2 0xFFF JUMP JUMPDEST PUSH0 DUP5 DUP5 ADD MSTORE POP POP POP POP JUMP JUMPDEST PUSH0 PUSH2 0x102F DUP3 PUSH2 0xFE3 JUMP JUMPDEST PUSH2 0x1039 DUP2 DUP6 PUSH2 0xFED JUMP JUMPDEST SWAP4 POP PUSH2 0x1049 DUP2 DUP6 PUSH1 0x20 DUP7 ADD PUSH2 0xFFD JUMP JUMPDEST PUSH2 0x1052 DUP2 PUSH2 0xC60 JUMP JUMPDEST DUP5 ADD SWAP2 POP POP SWAP3 SWAP2 POP POP JUMP JUMPDEST PUSH0 PUSH1 0x20 DUP3 ADD SWAP1 POP DUP2 DUP2 SUB PUSH0 DUP4 ADD MSTORE PUSH2 0x1075 DUP2 DUP5 PUSH2 0x1025 JUMP JUMPDEST SWAP1 POP SWAP3 SWAP2 POP POP JUMP JUMPDEST PUSH0 PUSH1 0x20 DUP3 ADD SWAP1 POP PUSH2 0x1090 PUSH0 DUP4 ADD DUP5 PUSH2 0xF41 JUMP JUMPDEST SWAP3 SWAP2 POP POP JUMP JUMPDEST PUSH32 0x4E6F742077686974656C69737465640000000000000000000000000000000000 PUSH0 DUP3 ADD MSTORE POP JUMP JUMPDEST PUSH0 PUSH2 0x10CA PUSH1 0xF DUP4 PUSH2 0xFED JUMP JUMPDEST SWAP2 POP PUSH2 0x10D5 DUP3 PUSH2 0x1096 JUMP JUMPDEST PUSH1 0x20 DUP3 ADD SWAP1 POP SWAP2 SWAP1 POP JUMP JUMPDEST PUSH0 PUSH1 0x20 DUP3 ADD SWAP1 POP DUP2 DUP2 SUB PUSH0 DUP4 ADD MSTORE PUSH2 0x10F7 DUP2 PUSH2 0x10BE JUMP JUMPDEST SWAP1 POP SWAP2 SWAP1 POP JUMP JUMPDEST PUSH32 0x5573657220616C726561647920616464656420746F206469737472696374732E PUSH0 DUP3 ADD MSTORE POP JUMP JUMPDEST PUSH0 PUSH2 0x1132 PUSH1 0x20 DUP4 PUSH2 0xFED JUMP JUMPDEST SWAP2 POP PUSH2 0x113D DUP3 PUSH2 0x10FE JUMP JUMPDEST PUSH1 0x20 DUP3 ADD SWAP1 POP SWAP2 SWAP1 POP JUMP JUMPDEST PUSH0 PUSH1 0x20 DUP3 ADD SWAP1 POP DUP2 DUP2 SUB PUSH0 DUP4 ADD MSTORE PUSH2 0x115F DUP2 PUSH2 0x1126 JUMP JUMPDEST SWAP1 POP SWAP2 SWAP1 POP JUMP JUMPDEST PUSH32 0x4E487B7100000000000000000000000000000000000000000000000000000000 PUSH0 MSTORE PUSH1 0x22 PUSH1 0x4 MSTORE PUSH1 0x24 PUSH0 REVERT JUMPDEST PUSH0 PUSH1 0x2 DUP3 DIV SWAP1 POP PUSH1 0x1 DUP3 AND DUP1 PUSH2 0x11AA JUMPI PUSH1 0x7F DUP3 AND SWAP2 POP JUMPDEST PUSH1 0x20 DUP3 LT DUP2 SUB PUSH2 0x11BD JUMPI PUSH2 0x11BC PUSH2 0x1166 JUMP JUMPDEST JUMPDEST POP SWAP2 SWAP1 POP JUMP JUMPDEST PUSH32 0x5573657220616C7265616479206861732061206865616C7468207265636F7264 PUSH0 DUP3 ADD MSTORE PUSH32 0x2E00000000000000000000000000000000000000000000000000000000000000 PUSH1 0x20 DUP3 ADD MSTORE POP JUMP JUMPDEST PUSH0 PUSH2 0x121D PUSH1 0x21 DUP4 PUSH2 0xFED JUMP JUMPDEST SWAP2 POP PUSH2 0x1228 DUP3 PUSH2 0x11C3 JUMP JUMPDEST PUSH1 0x40 DUP3 ADD SWAP1 POP SWAP2 SWAP1 POP JUMP JUMPDEST PUSH0 PUSH1 0x20 DUP3 ADD SWAP1 POP DUP2 DUP2 SUB PUSH0 DUP4 ADD MSTORE PUSH2 0x124A DUP2 PUSH2 0x1211 JUMP JUMPDEST SWAP1 POP SWAP2 SWAP1 POP JUMP JUMPDEST PUSH0 DUP2 SWAP1 POP DUP2 PUSH0 MSTORE PUSH1 0x20 PUSH0 KECCAK256 SWAP1 POP SWAP2 SWAP1 POP JUMP JUMPDEST PUSH0 PUSH1 0x20 PUSH1 0x1F DUP4 ADD DIV SWAP1 POP SWAP2 SWAP1 POP JUMP JUMPDEST PUSH0 DUP3 DUP3 SHL SWAP1 POP SWAP3 SWAP2 POP POP JUMP JUMPDEST PUSH0 PUSH1 0x8 DUP4 MUL PUSH2 0x12AD PUSH32 0xFFFFFFFFFFFFFFFFFFFFFFFFFFFFFFFFFFFFFFFFFFFFFFFFFFFFFFFFFFFFFFFF DUP3 PUSH2 0x1272 JUMP JUMPDEST PUSH2 0x12B7 DUP7 DUP4 PUSH2 0x1272 JUMP JUMPDEST SWAP6 POP DUP1 NOT DUP5 AND SWAP4 POP DUP1 DUP7 AND DUP5 OR SWAP3 POP POP POP SWAP4 SWAP3 POP POP POP JUMP JUMPDEST PUSH0 DUP2 SWAP1 POP SWAP2 SWAP1 POP JUMP JUMPDEST PUSH0 PUSH2 0x12F2 PUSH2 0x12ED PUSH2 0x12E8 DUP5 PUSH2 0xE4A JUMP JUMPDEST PUSH2 0x12CF JUMP JUMPDEST PUSH2 0xE4A JUMP JUMPDEST SWAP1 POP SWAP2 SWAP1 POP JUMP JUMPDEST PUSH0 DUP2 SWAP1 POP SWAP2 SWAP1 POP JUMP JUMPDEST PUSH2 0x130B DUP4 PUSH2 0x12D8 JUMP JUMPDEST PUSH2 0x131F PUSH2 0x1317 DUP3 PUSH2 0x12F9 JUMP JUMPDEST DUP5 DUP5 SLOAD PUSH2 0x127E JUMP JUMPDEST DUP3 SSTORE POP POP POP POP JUMP JUMPDEST PUSH0 SWAP1 JUMP JUMPDEST PUSH2 0x1333 PUSH2 0x1327 JUMP JUMPDEST PUSH2 0x133E DUP2 DUP5 DUP5 PUSH2 0x1302 JUMP JUMPDEST POP POP POP JUMP JUMPDEST JUMPDEST DUP2 DUP2 LT ISZERO PUSH2 0x1361 JUMPI PUSH2 0x1356 PUSH0 DUP3 PUSH2 0x132B JUMP JUMPDEST PUSH1 0x1 DUP2 ADD SWAP1 POP PUSH2 0x1344 JUMP JUMPDEST POP POP JUMP JUMPDEST PUSH1 0x1F DUP3 GT ISZERO PUSH2 0x13A6 JUMPI PUSH2 0x1377 DUP2 PUSH2 0x1251 JUMP JUMPDEST PUSH2 0x1380 DUP5 PUSH2 0x1263 JUMP JUMPDEST DUP2 ADD PUSH1 0x20 DUP6 LT ISZERO PUSH2 0x138F JUMPI DUP2 SWAP1 POP JUMPDEST PUSH2 0x13A3 PUSH2 0x139B DUP6 PUSH2 0x1263 JUMP JUMPDEST DUP4 ADD DUP3 PUSH2 0x1343 JUMP JUMPDEST POP POP JUMPDEST POP POP POP JUMP JUMPDEST PUSH0 DUP3 DUP3 SHR SWAP1 POP SWAP3 SWAP2 POP POP JUMP JUMPDEST PUSH0 PUSH2 0x13C6 PUSH0 NOT DUP5 PUSH1 0x8 MUL PUSH2 0x13AB JUMP JUMPDEST NOT DUP1 DUP4 AND SWAP2 POP POP SWAP3 SWAP2 POP POP JUMP JUMPDEST PUSH0 PUSH2 0x13DE DUP4 DUP4 PUSH2 0x13B7 JUMP JUMPDEST SWAP2 POP DUP3 PUSH1 0x2 MUL DUP3 OR SWAP1 POP SWAP3 SWAP2 POP POP JUMP JUMPDEST PUSH2 0x13F7 DUP3 PUSH2 0xFE3 JUMP JUMPDEST PUSH8 0xFFFFFFFFFFFFFFFF DUP2 GT ISZERO PUSH2 0x1410 JUMPI PUSH2 0x140F PUSH2 0xC70 JUMP JUMPDEST JUMPDEST PUSH2 0x141A DUP3 SLOAD PUSH2 0x1193 JUMP JUMPDEST PUSH2 0x1425 DUP3 DUP3 DUP6 PUSH2 0x1365 JUMP JUMPDEST PUSH0 PUSH1 0x20 SWAP1 POP PUSH1 0x1F DUP4 GT PUSH1 0x1 DUP2 EQ PUSH2 0x1456 JUMPI PUSH0 DUP5 ISZERO PUSH2 0x1444 JUMPI DUP3 DUP8 ADD MLOAD SWAP1 POP JUMPDEST PUSH2 0x144E DUP6 DUP3 PUSH2 0x13D3 JUMP JUMPDEST DUP7 SSTORE POP PUSH2 0x14B5 JUMP JUMPDEST PUSH1 0x1F NOT DUP5 AND PUSH2 0x1464 DUP7 PUSH2 0x1251 JUMP JUMPDEST PUSH0 JUMPDEST DUP3 DUP2 LT ISZERO PUSH2 0x148B JUMPI DUP5 DUP10 ADD MLOAD DUP3 SSTORE PUSH1 0x1 DUP3 ADD SWAP2 POP PUSH1 0x20 DUP6 ADD SWAP5 POP PUSH1 0x20 DUP2 ADD SWAP1 POP PUSH2 0x1466 JUMP JUMPDEST DUP7 DUP4 LT ISZERO PUSH2 0x14A8 JUMPI DUP5 DUP10 ADD MLOAD PUSH2 0x14A4 PUSH1 0x1F DUP10 AND DUP3 PUSH2 0x13B7 JUMP JUMPDEST DUP4 SSTORE POP JUMPDEST PUSH1 0x1 PUSH1 0x2 DUP9 MUL ADD DUP9 SSTORE POP POP POP JUMPDEST POP POP POP POP POP POP JUMP JUMPDEST PUSH32 0x4E487B7100000000000000000000000000000000000000000000000000000000 PUSH0 MSTORE PUSH1 0x32 PUSH1 0x4 MSTORE PUSH1 0x24 PUSH0 REVERT JUMPDEST PUSH32 0x5468652063616C6C657220646F6573206E6F742068617665207065726D697373 PUSH0 DUP3 ADD MSTORE PUSH32 0x696F6E20746F206D6F646966792E000000000000000000000000000000000000 PUSH1 0x20 DUP3 ADD MSTORE POP JUMP JUMPDEST PUSH0 PUSH2 0x1544 PUSH1 0x2E DUP4 PUSH2 0xFED JUMP JUMPDEST SWAP2 POP PUSH2 0x154F DUP3 PUSH2 0x14EA JUMP JUMPDEST PUSH1 0x40 DUP3 ADD SWAP1 POP SWAP2 SWAP1 POP JUMP JUMPDEST PUSH0 PUSH1 0x20 DUP3 ADD SWAP1 POP DUP2 DUP2 SUB PUSH0 DUP4 ADD MSTORE PUSH2 0x1571 DUP2 PUSH2 0x1538 JUMP JUMPDEST SWAP1 POP SWAP2 SWAP1 POP JUMP INVALID LOG2 PUSH5 0x6970667358 0x22 SLT KECCAK256 0xC5 0xD9 PUSH21 0x459070BBC3A6B9690F223354A8C6D1406F171C11D6 CALL 0xEA SHL LOG2 POP 0xC6 0xA7 DUP2 PUSH5 0x736F6C6343 STOP ADDMOD AND STOP CALLER "
		},
		"gasEstimates": {
			"creation": {
				"codeDepositCost": "1110000",
				"executionCost": "infinite",
				"totalCost": "infinite"
			},
			"external": {
				"addToWhitelist(address)": "27086",
				"addUser(address,string,address,uint8)": "infinite",
				"allowedDistricts(address,uint256)": "infinite",
				"canModify(address,uint256)": "infinite",
				"getAuthorizationLevelByUserAddress(address,uint256)": "infinite",
				"getDistrictAdressByUserAddress(address,uint256)": "infinite",
				"modifyUserHealthRecord(address,uint256,string)": "infinite",
				"removeFromWhitelist(address)": "27086",
				"userHealthRecords(address)": "infinite",
				"whitelist(address)": "2900"
			}
		},
		"methodIdentifiers": {
			"addToWhitelist(address)": "e43252d7",
			"addUser(address,string,address,uint8)": "0e267317",
			"allowedDistricts(address,uint256)": "ad2b28d2",
			"canModify(address,uint256)": "ed4cc6f5",
			"getAuthorizationLevelByUserAddress(address,uint256)": "80cdb604",
			"getDistrictAdressByUserAddress(address,uint256)": "e744f40c",
			"modifyUserHealthRecord(address,uint256,string)": "c7a87bae",
			"removeFromWhitelist(address)": "8ab1d681",
			"userHealthRecords(address)": "e2b95b2e",
			"whitelist(address)": "9b19251a"
		}
	},
	"abi": [
		{
			"inputs": [],
			"stateMutability": "nonpayable",
			"type": "constructor"
		},
		{
			"inputs": [
				{
					"internalType": "address",
					"name": "_address",
					"type": "address"
				}
			],
			"name": "addToWhitelist",
			"outputs": [],
			"stateMutability": "nonpayable",
			"type": "function"
		},
		{
			"inputs": [
				{
					"internalType": "address",
					"name": "newUser",
					"type": "address"
				},
				{
					"internalType": "string",
					"name": "initialHealthRecord",
					"type": "string"
				},
				{
					"internalType": "address",
					"name": "initialDistrictAddress",
					"type": "address"
				},
				{
					"internalType": "uint8",
					"name": "initialAuthorizationLevel",
					"type": "uint8"
				}
			],
			"name": "addUser",
			"outputs": [],
			"stateMutability": "nonpayable",
			"type": "function"
		},
		{
			"inputs": [
				{
					"internalType": "address",
					"name": "",
					"type": "address"
				},
				{
					"internalType": "uint256",
					"name": "",
					"type": "uint256"
				}
			],
			"name": "allowedDistricts",
			"outputs": [
				{
					"internalType": "address",
					"name": "districtAddress",
					"type": "address"
				},
				{
					"internalType": "uint8",
					"name": "authorizationLevel",
					"type": "uint8"
				}
			],
			"stateMutability": "view",
			"type": "function"
		},
		{
			"inputs": [
				{
					"internalType": "address",
					"name": "userAddress",
					"type": "address"
				},
				{
					"internalType": "uint256",
					"name": "districtId",
					"type": "uint256"
				}
			],
			"name": "canModify",
			"outputs": [
				{
					"internalType": "bool",
					"name": "",
					"type": "bool"
				}
			],
			"stateMutability": "view",
			"type": "function"
		},
		{
			"inputs": [
				{
					"internalType": "address",
					"name": "userAddress",
					"type": "address"
				},
				{
					"internalType": "uint256",
					"name": "districtId",
					"type": "uint256"
				}
			],
			"name": "getAuthorizationLevelByUserAddress",
			"outputs": [
				{
					"internalType": "uint8",
					"name": "",
					"type": "uint8"
				}
			],
			"stateMutability": "view",
			"type": "function"
		},
		{
			"inputs": [
				{
					"internalType": "address",
					"name": "userAddress",
					"type": "address"
				},
				{
					"internalType": "uint256",
					"name": "districtId",
					"type": "uint256"
				}
			],
			"name": "getDistrictAdressByUserAddress",
			"outputs": [
				{
					"internalType": "address",
					"name": "",
					"type": "address"
				}
			],
			"stateMutability": "view",
			"type": "function"
		},
		{
			"inputs": [
				{
					"internalType": "address",
					"name": "userAddress",
					"type": "address"
				},
				{
					"internalType": "uint256",
					"name": "districtId",
					"type": "uint256"
				},
				{
					"internalType": "string",
					"name": "newRecord",
					"type": "string"
				}
			],
			"name": "modifyUserHealthRecord",
			"outputs": [],
			"stateMutability": "nonpayable",
			"type": "function"
		},
		{
			"inputs": [
				{
					"internalType": "address",
					"name": "_address",
					"type": "address"
				}
			],
			"name": "removeFromWhitelist",
			"outputs": [],
			"stateMutability": "nonpayable",
			"type": "function"
		},
		{
			"inputs": [
				{
					"internalType": "address",
					"name": "",
					"type": "address"
				}
			],
			"name": "userHealthRecords",
			"outputs": [
				{
					"internalType": "string",
					"name": "",
					"type": "string"
				}
			],
			"stateMutability": "view",
			"type": "function"
		},
		{
			"inputs": [
				{
					"internalType": "address",
					"name": "",
					"type": "address"
				}
			],
			"name": "whitelist",
			"outputs": [
				{
					"internalType": "bool",
					"name": "",
					"type": "bool"
				}
			],
			"stateMutability": "view",
			"type": "function"
		}
	]
}